:020000040800F2
:10000000000010249D1C02087DDA0108D5DA0108E1
:10001000F1DA0108F5DA0108F9DA01080000000058
:1000200000000000000000000000000061BF0108A7
:10003000FDDA010800000000F1BF010801DB010842
:10004000ED1C0208ED1C0208ED1C02084DDB010846
:10005000ED1C0208ED1C0208ED1C0208ED1C020854
:1000600059DB01086DDB0108ED1C0208ED1C0208DC
:1000700005DB0108ED1C020811DB0108ED1C02087C
:1000800011DC0108ED1C0208ED1C0208ED1C020841
:10009000ED1C0208ED1C0208ED1C0208ED1C020814
:1000A000ED1C0208ED1C0208ED1C02081DDB010816
:1000B000ED1C0208ED1C020835DB0108ED1C0208EE
:1000C000ED1C0208ED1C0208ED1C0208ED1C0208E4
:1000D000ED1C0208ED1C0208ED1C0208ED1C0208D4
:1000E000ED1C0208ED1C0208ED1C0208ED1C0208C4
:1000F000ED1C0208ED1C0208ED1C0208ED1C0208B4
:10010000ED1C0208ED1C0208ED1C020829DB0108A9
:10011000ED1C0208D9E7010841DB0108ED1C0208CB
:10012000ED1C0208ED1C0208D1DB0108DDDB010833
:10013000ED1C02080000000000000000ED1C020899
:10014000ED1C0208ED1C0208ED1C0208ED1C020863
:10015000ED1C0208ED1C0208ED1C0208ED1C020853
:10016000ED1C0208ED1C0208ED1C0208ED1C020843
:10017000ED1C0208ED1C0208ED1C02080000000046
:10018000ED1C0208ED1C0208ED1C0208ED1C020823
:10019000ED1C0208ED1C0208ED1C0208ED1C020813
:1001A000ED1C0208ED1C0208ED1C0208ED1C020803
:1001B000ED1C0208ED1C0208ED1C0208ED1C0208F3
:1001C000ED1C0208ED1C0208000000000000000009
:1001D0000000000000000000ED1C0208000000000C
:1001E000000000000000000000000000000000000F
:1001F0000000000000000000ED1C0208ED1C0208D9
:10020000ED1C0208ED1C020800000000ED1C0208B5
:10021000ED1C0208ED1C0208ED1C0208ED1C020892
:10022000ED1C0208ED1C0208ED1C02080000000095
:10023000ED1C0208ED1C020800000000ED1C020885
:10024000ED1C0208ED1C0208ED1C0208ED1C020862
:10025000ED1C0208ED1C0208ED1C0208ED1C020852
:10026000ED1C0208ED1C0208ED1C0208ED1C020842
:10027000ED1C0208ED1C0208ED1C02080000000045
:10028000ED1C0208ED1C020800000000ED1C020835
:1002900000000000ED1C0208ED1C02080000000038
:0C02A00000000000ED1C0208ED1C02082C
:04400000EFBEADDE84
:020000040801F1
:100000001203CADE0FFFFFFF902F0308982F03088B
:10001000CC2E0308902E0308011007001403CADE3B
:100020000FFFFFFF902F0308982F03080C300308E1
:10003000D02F030801100700B818030800000200C1
:1000400029FF0108F4190308C01803080000020082
:1000500029FF0108F4190308C01303080000020077
:1000600065F30108281B0308C418030800000200F8
:1000700099F30108281C0308CC18030800000200AB
:10008000C5FA0108081B0308D41803080000020081
:10009000D1F90108CC1A0308DC180308000002009B
:1000A00039F401083C190308D823030801000400AF
:1000B000D50D02081824030800000000020001000A
:1000C0000000000054240308082403084200020032
:1000D000F50D02086C240308041E03080100020049
:1000E0008D0002086C1E03080C1E030801000200AC
:1000F000D5000208301E0308141E03080100020088
:100100001D0102085C1E03081C1E030801000200FA
:1001100021020208301F0308281E03080100020004
:1001200065010208981E0308182103080100020057
:10013000A1060208DC22030884180308010002005B
:10014000B1F30108901A03088C180308010002009B
:100150009DF30108881903089418030801000200A0
:1001600075F70108501C03089C18030801000200E1
:10017000F1F50108541B0308A81803080100020048
:10018000F5F301081C190308B01803080100020068
:10019000C9F30108E81C030820210308010002003C
:1001A000010302082C220308282103080100020091
:1001B000410402086C2203083021030801000200F8
:1001C0005905020880210308D82303080200000013
:1001D000A10D0208810D02082DEE0108C1F10108F0
:1001E000B80001087DDC0108E5E9010851EA0108D1
:1001F00085EA0108DD06020810B5054C237833B9FD
:10020000044B13B10448AFF300800123237010BDE9
:10021000B80D0024000000006C0F030808B5034B64
:100220001BB103490348AFF3008008BD0000000084
:10023000BC0D00246C0F030810F8012B11F8013BD2
:10024000012A28BF9A42F7D0D01A7047034613F804
:10025000012B002AFBD1181A01387047000000005A
:1002600001F0FF01102A2BDB10F0070F08D010F867
:10027000013B013A8B422DD010F0070F42B3F6D16B
:10028000F0B441EA012141EA014122F007047FF084
:1002900000070023F0E80256083C85EA010586EADB
:1002A000010685FA47F5A3FA87F586FA47F6A5FA17
:1002B00087F68EB9EED1F0BC01F0FF0102F0070223
:1002C00032B110F8013B013A83EA010313B1F8D1CE
:1002D0000020704701387047002D06BF35460338AF
:1002E000073815F0010F07D1013015F4807F02BFE8
:1002F000013015F4C03F0130F0BC0138704700BF39
:1003000081F0004102E000BF83F0004330B54FEAC6
:1003100041044FEA430594EA050F08BF90EA020F33
:100320001FBF54EA000C55EA020C7FEA645C7FEAC6
:10033000655C00F0E2804FEA5454D4EB5555B8BFE9
:100340006D420CDD2C4480EA020281EA030382EA5A
:10035000000083EA010180EA020281EA0303362DEC
:1003600088BF30BD11F0004F4FEA01314FF4801CBF
:100370004CEA113102D0404261EB410113F0004FD1
:100380004FEA03334CEA133302D0524263EB430388
:1003900094EA050F00F0A780A4F10104D5F1200E26
:1003A0000DDB02FA0EFC22FA05F2801841F1000181
:1003B00003FA0EF2801843FA05F359410EE0A5F155
:1003C00020050EF1200E012A03FA0EFC28BF4CF086
:1003D000020C43FA05F3C01851EBE37101F000453C
:1003E00007D54FF0000EDCF1000C7EEB00006EEB49
:1003F0000101B1F5801F1BD3B1F5001F0CD34908D3
:100400005FEA30004FEA3C0C04F101044FEA445229
:1004100012F5800F80F09A80BCF1004F08BF5FEAB0
:10042000500C50F1000041EB045141EA050130BD90
:100430005FEA4C0C404141EB0101013C28BFB1F5A2
:10044000801FE9D291F0000F04BF01460020B1FAED
:1004500081F308BF2033A3F10B03B3F120020CDAC0
:100460000C3208DD02F1140CC2F10C0201FA0CF09E
:1004700021FA02F10CE002F11402D8BFC2F1200C03
:1004800001FA02F120FA0CFCDCBF41EA0C019040B9
:10049000E41AA2BF01EB0451294330BD6FEA040402
:1004A0001F3C1CDA0C340EDC04F11404C4F12002ED
:1004B00020FA04F001FA02F340EA030021FA04F3FF
:1004C00045EA030130BDC4F10C04C4F1200220FA56
:1004D00002F001FA04F340EA0300294630BD21FA94
:1004E00004F0294630BD94F0000F83F4801306BF5A
:1004F00081F480110134013D4EE77FEA645C18BF4E
:100500007FEA655C29D094EA050F08BF90EA020FE4
:1005100005D054EA000C04BF1946104630BD91EADC
:10052000030F1EBF0021002030BD5FEA545C05D1DF
:100530004000494128BF41F0004130BD14F580041E
:100540003CBF01F5801130BD01F0004545F0FE4192
:1005500041F470014FF0000030BD7FEA645C1ABFC7
:10056000194610467FEA655C1CBF0B46024650EAFE
:10057000013406BF52EA033591EA030F41F400212A
:1005800030BD00BF90F0000F04BF0021704730B5B0
:100590004FF4806404F132044FF000054FF0000185
:1005A00050E700BF90F0000F04BF0021704730B546
:1005B0004FF4806404F1320410F0004548BF40421B
:1005C0004FF000013EE700BF42004FEAE2014FEA70
:1005D00031014FEA02701FBF12F07F4393F07F4F4B
:1005E00081F06051704732F07F4208BF704793F04E
:1005F0007F4F04BF41F40021704730B54FF4607461
:1006000001F0004521F000411CE700BF50EA010263
:1006100008BF704730B54FF000050AE050EA01020C
:1006200008BF704730B511F0004502D5404261EB7C
:1006300041014FF4806404F132045FEA915C3FF4BD
:10064000D8AE4FF003025FEADC0C18BF03325FEA5A
:10065000DC0C18BF033202EBDC02C2F1200300FA0B
:1006600003FC20FA02F001FA03FE40EA0E0021FA30
:1006700002F11444BDE600BF70B54FF0FF0C4CF41E
:10068000E06C1CEA11541DBF1CEA135594EA0C0FD0
:1006900095EA0C0F00F0DEF82C4481EA030621EA0B
:1006A0004C5123EA4C5350EA013518BF52EA033546
:1006B00041F4801143F4801338D0A0FB02CE4FF0F8
:1006C0000005E1FB02E506F00042E0FB03E54FF028
:1006D0000006E1FB03569CF0000F18BF4EF0010E20
:1006E000A4F1FF04B6F5007F64F5407404D25FEA1C
:1006F0004E0E6D4146EB060642EAC62141EA5551CF
:100700004FEAC52040EA5E504FEACE2EB4F1FD0C10
:1007100088BFBCF5E06F1ED8BEF1004F08BF5FEA8E
:10072000500E50F1000041EB045170BD06F0004640
:1007300046EA010140EA020081EA0301B4EB5C04ED
:10074000C2BFD4EB0C0541EA045170BD41F48011E5
:100750004FF0000E013C00F3AB8014F1360FDEBF0A
:10076000002001F0004170BDC4F10004203C35DAE6
:100770000C341BDC04F11404C4F1200500FA05F369
:1007800020FA04F001FA05F240EA020001F000420A
:1007900021F0004110EBD37021FA04F642EB060180
:1007A0005EEA430E08BF20EAD37070BDC4F10C04AA
:1007B000C4F1200500FA04F320FA05F001FA04F26E
:1007C00040EA020001F0004110EBD37041F100015A
:1007D0005EEA430E08BF20EAD37070BDC4F1200565
:1007E00000FA05F24EEA020E20FA04F301FA05F2CD
:1007F00043EA020321FA04F001F0004121FA04F275
:1008000020EA020000EBD3705EEA430E08BF20EA44
:10081000D37070BD94F0000F0FD101F0004640007E
:1008200041EB010111F4801F08BF013CF7D041EA00
:10083000060195F0000F18BF704703F00046520004
:1008400043EB030313F4801F08BF013DF7D043EAD5
:100850000603704794EA0C0F0CEA135518BF95EA8B
:100860000C0F0CD050EA410618BF52EA4306D1D112
:1008700081EA030101F000414FF0000070BD50EA31
:10088000410606BF1046194652EA430619D094EABB
:100890000C0F02D150EA013613D195EA0C0F05D1A5
:1008A00052EA03361CBF104619460AD181EA0301F9
:1008B00001F0004141F0FE4141F470014FF00000B1
:1008C00070BD41F0FE4141F4780170BD70B54FF04C
:1008D000FF0C4CF4E06C1CEA11541DBF1CEA1355CC
:1008E00094EA0C0F95EA0C0F00F0A7F8A4EB0504AE
:1008F00081EA030E52EA03354FEA013100F08880A5
:100900004FEA03334FF0805545EA131343EA12636D
:100910004FEA022245EA111545EA10654FEA002622
:100920000EF000419D4208BF964244F1FD0404F5DB
:10093000407402D25B084FEA3202B61A65EB030537
:100940005B084FEA32024FF480104FF4002CB6EBF4
:10095000020E75EB030E22BFB61A754640EA0C0074
:100960005B084FEA3202B6EB020E75EB030E22BFB4
:10097000B61A754640EA5C005B084FEA3202B6EBF5
:10098000020E75EB030E22BFB61A754640EA9C00B4
:100990005B084FEA3202B6EB020E75EB030E22BF84
:1009A000B61A754640EADC0055EA060E18D04FEA42
:1009B000051545EA16754FEA06164FEAC30343EAE2
:1009C00052734FEAC2025FEA1C1CC0D111F4801FAF
:1009D0000BD141EA00014FF000004FF0004CB6E7A8
:1009E00011F4801F04BF01430020B4F1FD0C88BF47
:1009F000BCF5E06F3FF6AFAEB5EB030C04BFB6EB52
:100A0000020C5FEA500C50F1000041EB045170BD44
:100A10000EF0004E4EEA113114EB5C04C2BFD4EB71
:100A20000C0541EA045170BD41F480114FF0000EF5
:100A3000013C90E645EA060E8DE60CEA135594EA71
:100A40000C0F08BF95EA0C0F3FF43BAF94EA0C0F74
:100A50000AD150EA01347FF434AF95EA0C0F7FF4E9
:100A600025AF104619462CE795EA0C0F06D152EA3D
:100A700003353FF4FDAE1046194622E750EA410621
:100A800018BF52EA43067FF4C5AE50EA41047FF432
:100A90000DAF52EA43057FF4EBAE12E74FF0FF3C97
:100AA00006E000BF4FF0010C02E000BF4FF0010C68
:100AB0004DF804CD4FEA410C7FEA6C5C4FEA430CE1
:100AC00018BF7FEA6C5C1BD001B050EA410C0CBF30
:100AD00052EA430C91EA030F02BF90EA020F002092
:100AE000704710F1000F91EA030F58BF994208BFF9
:100AF00090422CBFD8176FEAE37040F001007047B6
:100B00004FEA410C7FEA6C5C02D150EA013C07D10C
:100B10004FEA430C7FEA6C5CD6D152EA033CD3D057
:100B20005DF8040B704700BF8446104662468C4651
:100B30001946634600E000BF01B5FFF7B7FF002884
:100B400048BF10F1000F01BD4DF808EDFFF7F4FFAD
:100B50000CBF012000205DF808FB00BF4DF808ED38
:100B6000FFF7EAFF34BF012000205DF808FB00BF5B
:100B70004DF808EDFFF7E0FF94BF012000205DF87D
:100B800008FB00BF4DF808EDFFF7CEFF94BF012032
:100B900000205DF808FB00BF4DF808EDFFF7C4FF2B
:100BA00034BF012000205DF808FB00BF4FEA410C74
:100BB0007FEA6C5C02D150EA013C0AD14FEA430C57
:100BC0007FEA6C5C02D152EA033C02D14FF0000094
:100BD00070474FF0010070474FEA410212F50012D2
:100BE00015D211D56FF47873B3EB625212D94FEA74
:100BF000C12343F0004343EA505311F0004F23FA5E
:100C000002F018BF404270474FF00000704750EAB2
:100C1000013005D111F0004008BF6FF0004070476F
:100C20004FF00000704700BF4A0011D212F50012C9
:100C300011D20DD56FF47873B3EB62520ED44FEA34
:100C4000C12343F0004343EA505323FA02F07047B4
:100C50004FF00000704750EA013002D14FF0FF30F2
:100C600070474FF00000704753B94AB9002908BFD8
:100C700000281CBF4FF0FF314FF0FF3000F0AAB941
:100C8000ADF1080C6DE904CE00F03CF8DDF804E0AD
:100C9000DDE9022304B0704738B500220023044682
:100CA0000D46FFF75BFF28B920462946BDE83840CE
:100CB00000F00AB8204605F1004100F005F8404276
:100CC00061EB410138BD00BFD0B50C4B0022064698
:100CD0000F46FFF7D1FCFFF7A7FF0446FFF752FCD2
:100CE000074B0022FFF7C8FC02460B463046394648
:100CF000FFF70AFBFFF798FF2146D0BD0000F03D4B
:100D00000000F0412DE9F047089D04468E46002B77
:100D10004DD18A42944669D9B2FA82F252B101FAAF
:100D200002F3C2F1200120FA01F10CFA02FC41EABF
:100D3000030E94404FEA1C48210CBEFBF8F61FFA44
:100D40008CF708FB16E341EA034306FB07F19942DF
:100D50000AD91CEB030306F1FF3080F01F81994292
:100D600040F21C81023E63445B1AA4B2B3FBF8F06C
:100D700008FB103344EA034400FB07F7A7420AD9F3
:100D80001CEB040400F1FF3380F00A81A74240F21B
:100D900007816444023840EA0640E41B00261DB186
:100DA000D4400023C5E900433146BDE8F0878B42BB
:100DB00009D9002D00F0EF800026C5E9000130467A
:100DC0003146BDE8F087B3FA83F6002E4AD18B4254
:100DD00002D3824200F2F980841A61EB03030120FE
:100DE0009E46002DE0D0C5E9004EDDE702B9FFDEEA
:100DF000B2FA82F2002A40F09280A1EB0C014FEA95
:100E00001C471FFA8CFE0126200CB1FBF7F307FBF1
:100E1000131140EA01410EFB03F0884208D91CEB94
:100E2000010103F1FF3802D2884200F2CB80434631
:100E3000091AA4B2B1FBF7F007FB101144EA014410
:100E40000EFB00FEA64508D91CEB040400F1FF319F
:100E500002D2A64500F2BB800846A4EB0E0440EA8D
:100E600003409CE7C6F12007B34022FA07FC4CEA96
:100E7000030C20FA07F401FA06F31C43F9404FEA89
:100E80001C4900FA06F3B1FBF9F8200C1FFA8CFE9E
:100E900009FB181140EA014108FB0EF0884202FAF2
:100EA00006F20BD91CEB010108F1FF3A80F08880B3
:100EB000884240F28580A8F102086144091AA4B270
:100EC000B1FBF9F009FB101144EA014100FB0EFEF1
:100ED0008E4508D91CEB010100F1FF346CD28E4520
:100EE0006AD90238614440EA0840A0FB0294A1EBB1
:100EF0000E01A142C846A64656D353D05DB1B3EB0E
:100F0000080261EB0E0101FA07F722FA06F3F1403D
:100F10001F43C5E9007100263146BDE8F087C2F1E4
:100F20002003D8400CFA02FC21FA03F3914001435C
:100F30004FEA1C471FFA8CFEB3FBF7F007FB103695
:100F40000B0C43EA064300FB0EF69E4204FA02F441
:100F500008D91CEB030300F1FF382FD29E422DD994
:100F6000023863449B1B89B2B3FBF7F607FB1633C9
:100F700041EA034106FB0EF38B4208D91CEB010149
:100F800006F1FF3816D28B4214D9023E6144C91AC9
:100F900046EA004638E72E46284605E70646E3E6D9
:100FA0001846F8E64B45A9D2B9EB020864EB0C0EE3
:100FB0000138A3E74646EAE7204694E74046D1E7F2
:100FC000D0467BE7023B614432E7304609E76444A0
:100FD000023842E7704700BF10B5032000F068F800
:100FE00003F08AFC104B11499A699B69104CC2F3BB
:100FF000032203F00F038A5CCB5C0E4902F01F0250
:1010000020FA02F203F01F0322FA03F30F202360F9
:101010000A600CF0E5FC10B10124204610BD044626
:101020000CF000FA204610BD00440258601103087D
:10103000100000240C000024034A044B11681B78A4
:101040000B441360704700BFD80D0024000000243B
:10105000014B1868704700BFD80D002438B504460E
:10106000FFF7F6FF631C054602D0044B1B781C44B7
:10107000FFF7EEFF431BA342FAD338BD0000002464
:10108000024A536843F00103536070470010005C4C
:10109000024A536843F00203536070470010005C3B
:1010A000024A536843F00403536070470010005C29
:1010B0000749CA6803024FF6FF0003F4E0630240E9
:1010C000134343F0BF6343F40033CB60704700BF6A
:1010D00000ED00E01C4BDB68C3F3022300B5C3F155
:1010E000070EBEF1040F03F1040C28BF4FF0040EED
:1010F000BCF1060F1BD9033B4FF0FF3C0CFA03FC7D
:1011000022EA0C024FF0FF3C0CFA0EFC21EA0C0123
:101110009940002841EA02010CDB00F1604009011E
:1011200000F56140C9B280F800135DF804FB0022AD
:101130001346E7E7054B00F00F0009010344C9B26D
:1011400019765DF804FB00BF00ED00E0FCEC00E068
:10115000002808DB4109044A00F01F00012303FABC
:1011600000F042F82100704700E100E000280DDBAC
:10117000430907490122203300F01F0002FA00F062
:1011800041F82300BFF34F8FBFF36F8F704700BF4D
:1011900000E100E00138B0F1807F10D210B44FF0D0
:1011A000E023084C58614FF0F00C84F823C0002273
:1011B000072110469A615DF8044B196170470120C0
:1011C000704700BF00ED00E04FF0E02204281369F3
:1011D0000CBF43F0040323F004031361704700BF06
:1011E0002B4903688B42024631D018318B422ED0F6
:1011F00018318B422BD018318B4228D018318B42BA
:1012000035D018318B4232D018318B422FD0183163
:101210008B422CD001F556718B4218D018318B427D
:1012200015D018318B4212D018318B420FD01831A3
:101230008B421CD018318B4219D018318B4216D0FA
:1012400018318B4213D023F0FF009065704711488E
:10125000D9B21039A0FB0101C1F302110E48415C63
:1012600023F47F7020F00300C2E91601704709489B
:10127000D9B21039A0FB0101C1F30211064823F4D1
:101280007F73415C23F00303181DC2E91601704708
:1012900010000240ABAAAAAAC00F0308224A0368A2
:1012A000934210B429D01432934226D01432934280
:1012B00023D01432934220D0143293421DD01432E2
:1012C00093421AD01432934217D01432934214D05E
:1012D0001649174CDAB21944103AA4FB0242A82965
:1012E0004FEA121300D8083303F18052114C02F573
:1012F000024203F01F0301210DE00F4A0F4CDBB245
:10130000083BA2FB03231B0903F1B05202F516426E
:1013100003F01F030121920001FA03F3C0E918242E
:1013200083665DF8044B704708540258F0FBFDBF1C
:10133000ABAAAAAA80080240CDCCCCCC80580258D7
:1013400070B50446FFF784FE002C00F06981236825
:10135000A94A9342054674D01832934271D018328C
:1013600093426ED0183293426BD01832934268D0B9
:101370001832934265D01832934262D018329342A9
:101380005FD002F5567293425BD01832934258D028
:101390001832934255D01832934252D018329342A9
:1013A0004FD0183293424CD01832934249D0183261
:1013B000934246D0914A934200F08181904A9342F1
:1013C00000F07D811432934200F07981143293420F
:1013D00000F075811432934200F07181143293420F
:1013E00000F06D811432934200F06981143293420F
:1013F00000F06581834A934200F061811432934288
:1014000000F05D811432934200F05981143293420E
:1014100000F055811432934200F05181143293420E
:1014200000F04D811432934200F04981143293420E
:1014300000F0458140220323626584F835300120A5
:1014400070BD0022022184F8351084F834201A6817
:1014500022F001021A6006E0FFF7FAFD431B052B9C
:1014600000F2B78023681A68D007F5D4D4E90220C7
:1014700021691D6802430A436169A0690A43E16961
:1014800002430A4360492940256A2A430A43616AA4
:10149000042903D1D4E90B5635432A436568A5F1E5
:1014A000290CBCF11F0F40F29B80A5F14F06032EC3
:1014B00000F29D8042F480121A605A69042922F0D9
:1014C000070242EA010205D1A16AE56A0A43002D3A
:1014D00040F09E805A612046FFF782FEE36D03F0E4
:1014E0001F023F23934083602368434A934245D0C1
:1014F0001832934242D0183293423FD0183293426E
:101500003CD01832934239D01832934236D0183238
:10151000934233D01832934230D002F55672934240
:101520002CD01832934229D01832934226D0183248
:10153000934223D01832934220D0183293421DD0C8
:10154000183293421AD01832934217D02D4A934240
:1015500014D01432934211D0143293420ED014326C
:1015600093420BD01432934208D01432934205D0E8
:101570001432934202D01432934224D12046FFF712
:101580008DFEA368802B13D06368A06ED4E9185138
:10159000DAB2013B072B2A60486010D8501E07289A
:1015A00040D9D4E91B31626F002018604A600AE01C
:1015B000D4E91802A16E0023636003605160002328
:1015C000C4E91B33636700200123606584F835306C
:1015D00070BD20220323626584F83530012070BD80
:1015E0000A4E26FA0CFC1CF0010F7FF463AF743D29
:1015F000032D3FF661AF5DE710000240082C024862
:101600001C2C0248085402583F8010FE3F00C0C303
:1016100080BB01294ED031F002017FF45BAF31E095
:10162000012070BD236843498B4219D014318B428D
:1016300016D014318B4213D014318B4210D0143198
:101640008B420DD014318B420AD014318B4207D01B
:1016500014318B4204D0384B384913449B0003E0CB
:10166000374B384913449B0001228240C4E91B31A7
:10167000626799E7B0F5005F0ED0022905D903290A
:101680007FF428AFE9017FF525AF01234022626591
:1016900084F83530184670BD03293FF61BAF01A012
:1016A00050F821F08B160108851601088B160108E9
:1016B000B5160108B5F1C07F7FF40CAFE5E7022154
:1016C000002284F8351084F834201868A16820F4CA
:1016D000FF30402920F4F8702AD080290CBF4FF445
:1016E00080451546D4E90312D20842EAD102616965
:1016F000266A42EAD102A16942EAD102E16942EADC
:10170000D10242EA16121049024310482A431944F2
:101710001A60A0FB01231B099B00E3652046FFF72D
:101720005FFDE36D03F01F02012393404360DBE69E
:101730001025D7E7085402583F82001040090240A4
:101740003F96001640590258F8ABFDA7CDCCCCCC43
:10175000002800F0B1812DE9F0410D4690F83410D9
:10176000012982B0044600F0A98194F835100120C7
:10177000814284F8340008D04FF40062002362658F
:1017800084F8343002B0BDE8F081022184F83510CD
:1017900000217B486165216881420F4600F0FA8094
:1017A0001830814200F08E811830814200F014829E
:1017B0001830814200F018821830814200F0E48134
:1017C0001830814200F02A821830814200F04482B1
:1017D0001830814200F07E8200F55670814200F0A0
:1017E00094821830814200F09A821830814200F0D1
:1017F0009E821830814200F0A4821830814200F0AD
:10180000AA821830814200F0D5821830814200F05F
:10181000DB821830814200F0E3820868D4F85880F7
:1018200020F0010008605748814200F0B782143070
:10183000814200F0B3821430814200F0AF82143054
:10184000814200F0AB821430814200F0A782143054
:10185000814200F0A3821430814200F09F82143054
:10186000814200F09B824848814200F07E824748D6
:10187000814200F07A821430814200F07682143086
:10188000814200F072821430814200F06E82143086
:10189000814200F06A821430814200F06682143086
:1018A000814200F062823748814200F05E8214304B
:1018B000814200F05A821430814200F05682143086
:1018C000814200F052821430814200F04E82143086
:1018D000814200F04A821430814200F04682143086
:1018E000814200F04282264B99420F4640F0B78079
:1018F000274A216C136923F01E0343F0160313617A
:10190000002900F0898113691D4F43F0080313611A
:10191000236E1A68D20303D51A6842F480721A60E3
:10192000E36E1BB11A6842F480721A60144B9F4236
:101930001ED018339F421BD018339F4218D0183343
:101940009F4215D018339F4212D018339F420FD0B8
:1019500018339F420CD018339F4209D003F55673B9
:101960009F4205D018339F4202D018339F42FFD0C8
:101970003B68002043F001033B6002B0BDE8F0810A
:101980001000024008540258082C02481C2C02483F
:1019900000000240B54ED4F864E0306920F0010048
:1019A0003061E06EA66ED4F85880CEF8046010B1B5
:1019B000D4E91C064660E06D00F01F0C3F2000FAE1
:1019C0000CF0C8F80800086820F4802008604B601C
:1019D000A368402B0BBF8A608D60CD60CA60A44BAA
:1019E0009F4285D018339F4200F0BE8018339F423B
:1019F00000F0E28018339F4200F0FE8018339F42CF
:101A000000F0CA8018339F4200F0128118339F42C1
:101A100000F0388118339F4200F0488103F5567377
:101A20009F4200F0618118339F4200F076811833A5
:101A30009F4200F0848118339F4200F08A8118335E
:101A40009F4200F0908118339F4200F0B18118331B
:101A50009F4200F0C38118339F4200F0C3813B686E
:101A6000226C23F00E0343F00A033B601AB13B687B
:101A700043F004033B607F4B9F423FF449AF7E4BF2
:101A80009F423FF445AF14339F423FF441AF1433BC
:101A90009F423FF43DAF14339F423FF439AF1433BC
:101AA0009F423FF435AF14339F423FF431AF1433BC
:101AB0009F427FF45DAF2BE701207047022002B008
:101AC000BDE8F081694ED4F864E0B06A20F001000E
:101AD000B062E06EA66ED4F85880CEF8046000289C
:101AE0003FF469AFD4E91C60DFF894C170606145D0
:101AF0003FF461AF614881423FF45DAF18308142ED
:101B00003FF459AF183081423FF455AF183081424D
:101B10003FF451AF183081423FF44DAF183081424D
:101B20003FF449AF00F5567081423FF444AF18309E
:101B300081423FF440AF183081423FF43CAF18304F
:101B400081423FF438AF183081423FF434AF18304F
:101B500081423FF430AF183081423FF42CAF18304F
:101B600081427FF480AE26E7404A936A216C23F0DD
:101B70001E0343F01603936200293FF4C9AE936A33
:101B800043F008039362C3E6384ED4F864E0306F44
:101B900020F0010030679CE7344A136F216C23F07A
:101BA0001E0343F01603136700293FF4B1AE136F11
:101BB00043F008031367ABE62C4A136C216C23F047
:101BC0001E0343F01603136400293FF4A1AE136C07
:101BD00043F0080313649BE6244ED4F864E0306CB1
:101BE00020F00100306474E7204ED4F864E0B06D5A
:101BF00020F00100B0656CE71C4A936D216C23F066
:101C00001E0343F01603936500293FF481AE936DE4
:101C100043F0080393657BE6154F79E6134ED4F83D
:101C200064E0D6F8880020F00100C6F8880050E78C
:101C30000E4AD2F88830216C23F01E0343F01603BD
:101C4000C2F8883000293FF463AED2F8883043F000
:101C50000803C2F888305BE6044ED4F864E0D6F896
:101C6000A00020F00100C6F8A00032E7000002400A
:101C700010000240085402581C5402584000024010
:101C800028000240584AD2F8A030216C23F01E03ED
:101C900043F01603C2F8A03000293FF439AED2F861
:101CA000A03043F00803C2F8A03031E64E4AD2F823
:101CB000B830216C23F01E0343F01603C2F8B8308D
:101CC00000293FF425AED2F8B83043F00803C2F83B
:101CD000B8301DE6444ED6F8B800D4F864E020F0E1
:101CE0000100C6F8B800F4E6404A216C136923F0FD
:101CF0001E0343F01603136100293FF409AE3B4A6B
:101D0000136943F00803136102E6384ED4F864E027
:101D1000306920F001003061DBE6344A25E7334EBC
:101D2000D4F864E0B06A20F00100B062D1E62F4E32
:101D3000D4F864E0306C20F001003064C9E62B4A2E
:101D40003BE72A4ED4F864E0B06D20F00100B065A6
:101D5000BFE6264A51E7254ED4F864E0306F20F004
:101D600001003067B5E6214A17E707212048CDE991
:101D700000230CF07BFFE16D2768019B009A01F0C6
:101D80001F0001218140C8F804107B60A368402B2C
:101D90000BBFBA60BD60FD60FA6020E6D4E919604F
:101DA000D4F86CC07060BCF1000F7FF49BAE5AE5B4
:101DB0000E4A3EE70D4ED4F864E0D6F8880020F0D5
:101DC0000100C6F8880084E6084ED4F864E0D6F82E
:101DD000A00020F00100C6F8A0007AE6034A52E70E
:101DE000024E78E7014A62E7000002400004024028
:101DF000B80F030870B50446FFF72AF9002C00F06D
:101E0000028194F83530022B64D12368AD4A9342A5
:101E1000054600F0FA801832934200F00081183233
:101E200093425ED01832934200F0118118329342EF
:101E300000F017811832934200F0FB801832934271
:101E400000F01B811832934200F0258102F5567292
:101E5000934200F034811832934200F03F811832EF
:101E6000934200F03D811832934200F03B811832DA
:101E7000934200F039811832934200F037811832D2
:101E8000934200F043811832934200F031811A6886
:101E90008D4922F00E028B421A601E4614D08B4AE6
:101EA000934211D0143293420ED0143293420BD08D
:101EB0001432934208D01432934205D01432934224
:101EC00002D0143293421BD1216E0A6822F4807230
:101ED0000A6015E00023802284F834306265012016
:101EE00070BD7B4A116C21F01E011164516D21F00F
:101EF00080015165216E0A6822F480721E460A60D4
:101F00001A6822F001021A6004E0FFF7A1F8431BEF
:101F1000052B6ED83368DB07F7D42368694A9342F0
:101F20004DD0183293424AD01832934247D01832DB
:101F3000934244D01832934241D0183293423ED05B
:101F4000183293423BD01832934238D002F5567281
:101F5000934234D01832934231D0183293422ED06B
:101F6000183293422BD01832934228D01832934221
:101F700025D01832934222D0183293421FD0D4E990
:101F8000160202F01F0101228A404F4942608B4233
:101F90001CD04E4A934219D01432934216D01432B8
:101FA000934213D01432934210D0143293420DD086
:101FB000143293420AD01432934213D106E0D4E98A
:101FC000161303F01F023F2393408B60D4E91A13CA
:101FD000626E516033B11A68D4E91C1022F4807229
:101FE0001A6048600020012384F8353084F83400FA
:101FF00070BD202103230022616584F8342084F819
:102000003530012070BD012070BD314A116921F0C9
:102010001E011161516A21F0800151626AE72C4A68
:10202000916A21F01E019162D16B21F08001D16390
:1020300060E7274AD2F8881021F01E01C2F8881004
:10204000D2F89C1021F08001C2F89C1052E7204A7F
:10205000916D21F01E019165D16E21F08001D16654
:1020600048E71B4A116F21F01E011167D2F8841056
:1020700021F08001C2F884103CE7154AD2F8A01084
:1020800021F01E01C2F8A010D2F8B41021F0800196
:10209000C2F8B4102EE70E4A0E4ED2F8B81021F056
:1020A0001E01C2F8B810D2F8CC1021F08001C2F89D
:1020B000CC10216E0A6822F480720A6020E7064A7A
:1020C000A4E700BF10000240085402581C540258F4
:1020D00000000240B8000240000402400C4A9FE7A2
:1020E0000B4AFFE60A4AB3E7094ABBE7084AA1E7F9
:1020F000074AD2F8B81021F01E01C2F8B810D2F881
:10210000CC1021F08001C2F8CC10F3E6004AB5E70C
:102110000004024000286ED038B590F83530022B0C
:102120005CD10368434A93425CD01832934259D041
:102130001832934256D01832934253D018329342F9
:1021400050D0183293424DD0183293424AD01832B0
:10215000934247D002F55672934243D018329342CD
:1021600040D0183293423DD0183293423AD01832C0
:10217000934237D01832934234D01832934231D040
:10218000183293422ED01A682B4922F00E021A60A0
:102190001A688B4222F001021A602ED0274A93421D
:1021A0002BD01432934228D01432934225D01432CB
:1021B000934222D0143293421FD0143293421CD047
:1021C0001432934219D0036D0122002480F8352087
:1021D00080F834405BB39847204638BD8023436580
:1021E000012038BD042280F835201A6822F001024F
:1021F00000201A6038BD01207047D0E917310A6805
:10220000856D22F480720A6003F01F0301229A4058
:10221000D0E91A43416E6A604C60002BD3D01A6833
:10222000D0E91C1422F480721A604C60CBE7184687
:1022300038BD00BF10000240085402581C54025818
:102240002DE9F041424B43491F680368866D424CBB
:1022500082B0002201928B4235688046306822604D
:1022600000F0A2813D4A934200F0808018329342F0
:102270007CD01832934279D01832934276D01832FB
:10228000934273D01832934270D0183293426DD07B
:1022900002F55672934269D01832934266D01832D2
:1022A000934263D01832934260D0183293425DD08B
:1022B000183293425AD01832934257D01832934270
:1022C00054D0274A934200F0D982264A934200F024
:1022D000D5821432934200F0D1821432934200F03E
:1022E000CD821432934200F0C9821432934200F03E
:1022F000C5821432934200F0C1821432934200F03E
:10230000BD82194A934200F0B9821432934200F020
:10231000B5821432934200F0B1821432934200F03D
:10232000AD821432934200F0A9821432934200F03D
:10233000A5821432934200F0A1821432934200F03D
:102340009D82236843F40073236002B0BDE8F081EE
:102350000C00002410000240D40D0024280002408C
:10236000082C02481C2C024808540258D8F85C106B
:102370004FF0080C01F01F020CFA02F0054240F089
:102380001E8125FA02FC1CF0010F00F00582206876
:1023900040F0040020608148834200F0358118300D
:1023A000834200F031811830834200F02D811830D3
:1023B000834200F029811830834200F025811830D3
:1023C000834200F021811830834200F01D8100F526
:1023D0005670834200F018811830834200F0148157
:1023E0001830834200F010811830834200F00C81D5
:1023F0001830834200F008811830834200F00481D5
:102400001830834200F000811830834200F0FC80D5
:102410004FF0040C0CFA02FC1CEA050F186800F0DF
:102420007482D4F800C04CF0080CC4F800C04FF01F
:10243000100C0CFA02F21542186809D0D4F800C04A
:102440004CF0100CC4F800C01868400700F173810C
:1024500001F01F0120238B402B424AD02268504DAF
:1024600042F020022260D8F80020AA4200F07881D1
:102470001835AA4200F074811835AA4200F0708124
:102480001835AA4200F06C811835AA4200F0688124
:102490001835AA4200F064811835AA4200F0608124
:1024A0001835AA4200F05C8105F55675AA4200F085
:1024B00057811835AA4200F053811835AA4200F01E
:1024C0004F811835AA4200F04B811835AA4200F01E
:1024D00047811835AA4200F043811835AA4200F01E
:1024E0003F811835AA4200F03B811568A80700F12A
:1024F0003B81D8F85430002B3FF427AFD8F8543044
:10250000DB0741D5D8F80020254B04219A4288F8F2
:1025100035101ED018339A421BD018339A4218D067
:1025200018339A4215D018339A4212D018339A426F
:102530000FD018339A420CD018339A4209D003F5C1
:1025400056739A4205D018339A4202D018339A42F1
:10255000FFD01368134923F001031360A1FB073177
:10256000890A02E01368DF0704D5019B01338B421F
:102570000193F7D91368DE074CBF0323012388F8C2
:102580003530002388F83430D8F84C30002B3FF435
:10259000DCAE404602B0BDE8F041184728000240DA
:1025A00010000240B5814E1BD8F85C104FF0080CAB
:1025B00001F01F020CFA02F0054200F0F980D4F895
:1025C00000E04EF0020EC4F800E0D3F800E01EF088
:1025D000040F0CD0D3F800E02EF0040EC3F800E096
:1025E000B060D8F8540040F00100C8F8540025FA53
:1025F00002FC1CF0010F15D0206840F004002060A0
:102600009C4883427FF4C7AE586900060AD54FF054
:10261000010C0CFA02F0B060D8F8540040F002004F
:10262000C8F854004FF0040C0CFA02FC1CEA050F29
:1026300040D0206840F0080020608E4883422ED0B1
:102640008D4883422BD01830834228D018308342E3
:1026500025D01830834222D0183083421FD0183042
:1026600083421CD01830834219D000F55670834243
:1026700015D01830834212D0183083420FD0183052
:1026800083420CD01830834209D01830834206D0E0
:102690001830834203D0183083427FF4C8AE1868E4
:1026A000800707D5C6F808C0D8F8540040F00400E9
:1026B000C8F854004FF0100C0CFA02F22A423FF412
:1026C000C7AE206840EA0C0020606A4883422ED0E2
:1026D000183083422BD01830834228D018308342E0
:1026E00025D01830834222D0183083421FD01830B2
:1026F00083421CD01830834219D000F556708342B3
:1027000015D01830834212D0183083420FD01830C1
:1027100083420CD01830834209D01830834206D04F
:102720001830834203D0183083427FF48DAE18688E
:1027300000077FF58DAEB2601A68520342D41A6862
:10274000D20503D41A6822F008021A60D8F8403083
:10275000002B3FF47DAE40469847D8F85C1077E6F2
:102760001568ED067FF5C5AEB36098F83530042BDB
:1027700030D0136813F4802F236853D043F0400304
:10278000236013681A036BD5D8F83C30002B3FF454
:10279000B0AE40469847ACE64FF0040C0CFA02FC91
:1027A00015EA0C0F86D0206840F00800206047E74B
:1027B00025FA02FC1CF0010F45D0206840F004000F
:1027C000206021E71B681803C0D5D8F84830002BDB
:1027D000C1D13DE6236843F001032360136823F071
:1027E00016031360536923F080035361D8F8403017
:1027F000002B3AD0136823F0080313603F23D8F866
:10280000502003FA01F101240023B16088F835401B
:1028100088F83430002A3FF498AD404602B0BDE855
:10282000F041104743F080032360136813F4807372
:10283000AAD1116821F010011160012288F8352019
:1028400088F83430A0E74FF0040C0CFA02FC15EACB
:102850000C0F3FF42FAF206840F0080020601EE707
:10286000D8F84430002B94D143E6D8F84830002BF8
:10287000C0D1C3E710000240280002402268D8F807
:102880005C1042F48072226001F01F0104248C402D
:1028900004421A680CD055070AD5110474603CD55F
:1028A000D70340D4D8F84830002B7FF472AE4CE503
:1028B00002248C4004420CD095070AD510047460A1
:1028C00037D5D10341D4D8F84430002B7FF461AE22
:1028D0003BE508248C4004423FF437AD12077FF5F6
:1028E00034AD1A6822F00E021A600123D8F84C2089
:1028F00003FA01F100247160C8F8543088F83440BC
:1029000088F83530002A88D11FE54FF0100C0CFAFA
:1029100002F22A427FF492AD9AE5960603D41A6831
:1029200022F004021A60D8F84030002B7FF431AE58
:102930000BE512F0200208D11968012421F00A01E8
:10294000196088F8354088F83420D8F83C30002BDE
:102950007FF41FAEF9E400BF406D7047F8B5044640
:10296000FEF776FB022C054636D0254E4CF250374A
:1029700033695B0706D5FEF76BFB401BB842F7D9FE
:102980000320F8BD012C0CD133691E4A1A4030D106
:10299000306910F48030F4D04FF480337361104606
:1029A000F8BD174A1749D2F810310B400AD1D2F8B6
:1029B000100110F48030E4D04FF48031C2F81411CB
:1029C0001846F8BD104CA169194341F00041A161BE
:1029D0000120C2F81431F8BD094C4CF25036D4F83D
:1029E00010315A07DDD5FEF733FB431BB342F6D94E
:1029F000C6E705498B6913438B6120467261F8BDB8
:102A0000002000520000AE17DC0D00242DE9F0413B
:102A10003C4C237D012B67D0054601F17840012312
:102A2000B0F5801F0E461746237506D301F1774C8B
:102A30000CF5805CBCF5806F0AD218460023A361B8
:102A4000FFF78CFF00283AD000232375BDE8F08102
:102A5000A1F10162B2F5801F3BD200230220A361E5
:102A6000FFF77CFF0028EFD1274AD2F80C314FF056
:102A7000020843EA0803C2F80C31BFF36F8FBFF3BB
:102A80004F8F022D2CD03B6833607B687360BB682E
:102A9000B360FB68F360BFF36F8FBFF34F8F4046A7
:102AA000FFF75CFF022D184A15D0B8F1010F1ED0B8
:102AB000D2F80C3123F00203C2F80C31C4E7022D26
:102AC000114A4FF0010817D0D36843F00203D360D6
:102AD000D3E71846BAE7936923F020039361B3E77D
:102AE0003B889BB23380D6E70220BDE8F081D368F3
:102AF00023F00203D360A7E7936943F020039361B7
:102B0000BBE700BFDC0D0024002000520F4BDA6849
:102B1000D20706D50E490F4A59605A60DB68DB07B9
:102B200011D40A4BD3F80C0110F001000AD0084967
:102B3000084AC3F80411C3F80421D3F80C0100F0CB
:102B40000100704770470120704700BF002000520D
:102B500023016745AB89EFCD0A4BDA6842F00102E9
:102B6000DA60DA68D2070BD5D3F80C2142F0010203
:102B7000C3F80C21D3F80C01C04300F001007047EA
:102B80000120704700200052064B986910F00100A8
:102B900006D00549054A99609A60986900F00100DD
:102BA000704700BF002000523B2A19087F6E5D4C21
:102BB000044B9A6942F001029A619869C04300F09F
:102BC0000100704700200052014B9869704700BF18
:102BD000DC0D00242DE9F0410D460646FEF738FADB
:102BE000DFF8C880304C022D074618BF0424042C9F
:102BF0001CD0701C3CD12D4AD2F8103124EA0303BA
:102C00005907F9D5012D19D0284A2949D2F8103190
:102C10000B4022D1D2F8100110F4803004D04FF4D0
:102C20008031C2F814111846BDE8F081701C36D10D
:102C30001E4A13695907FCD4012DE5D11B491C4AD2
:102C40000B691A4023D1086910F48030ECD04FF49E
:102C500080334B611046BDE8F081164CA1691943E1
:102C600041F00041A1610120C2F81431BDE8F081BA
:102C7000D8F8103124EA03035B07C3D4FEF7E8F960
:102C8000C01BB04201D8002EB1D10320CCE7094CC3
:102C9000A3691343A36128464A61BDE8F081D8F8CF
:102CA00010305B07EAD4ADE704000080002000523A
:102CB0000000AE17DC0D00242DE9F84F714F3B7D6D
:102CC000012B00F0C080012600233E75BB614368E4
:102CD000DA070546884676D499070BD502214CF2CF
:102CE0005030FFF777FF28B1012600233B753046AF
:102CF000BDE8F88F2B68012B75D04FF0FF33C8F873
:102D00000030AA68E96853189A42924638D25E4C5D
:102D1000DFF878914FEA821B6B68D80732D5E268FA
:102D200022F4FE52E260E26842EA0B0242F0240220
:102D3000E2609A070DD5D4F80C3123F4FE53C4F8A1
:102D40000C31D4F80C3143EA0B0343F02403C4F8EC
:102D50000C3101214CF25030FFF73CFFE36803EAED
:102D60000903E3606B689B0706461BD446BBD5E9A5
:102D700002210AF1010A8B1853450BF1400BCBD805
:102D80000026B2E79807F4D5D4F80C3123F4FE53AB
:102D9000C4F80C31D4F80C3143EA0B0343F024039C
:102DA000C4F80C3102214CF25030FFF713FFD4F875
:102DB0000C31064603EA0903C4F80C31002ED6D0C4
:102DC000C8F800A091E731464CF25030FFF702FFFF
:102DD0006B68002880D09A0786D502214CF25030CB
:102DE000FFF7F8FE81E76B6803F00302032A2ED099
:102DF00013F0010634D02449CA689E0742F0280225
:102E0000CA6037D401214CF25030FFF7E3FE1E4A6E
:102E1000D36823F00803D360061E6B6818BF012631
:102E20009C077FF562AF02214CF25030FFF7D2FED3
:102E3000154AD2F80C31002823F0080318BF0126E8
:102E4000C2F80C3151E702263046BDE8F88F0E4932
:102E50008A6913F0010642F010028A61E0D0D1E7DE
:102E60009B078DD5084AD2F80C3143F02803C2F8ED
:102E70000C31D8E7D1F80C3143F02803C1F80C31FC
:102E8000C0E700BFDC0D0024002000523BE0FFFF44
:102E90003F4BDB6903F47F43B3F52A4F10B404D0F2
:102EA000B3F54C4F18BF4FF4AA43394AC360D369F6
:102EB000C16923F47F4323F00C038361D36901F1DB
:102EC000FF3C03F00C03BCF1010F03610DD9D621C7
:102ED0002F4A5DF8044B136C016019041B0C1B0492
:102EE000C0E90C13936E436470473F2301290360CC
:102EF00028D0D2F83831DB43191E18BF0121C0E9B0
:102F00000113D2F82811234B01F00044046203EAB4
:102F1000012403EA112101F1016104F10164C0E916
:102F20000941D2F8302103EA022103EA122301F118
:102F3000016102F0004203F10163C0E90E21036464
:102F4000FF21C5E7936BDB43191E18BF0121C0E9C0
:102F50000113916A0F4B01F00044046203EA01245B
:102F600003EA112101F1006104F10064C0E90941A3
:102F7000126B03EA022103EA122301F1006102F05D
:102F8000004203F10063C0E90E210364FF219FE7C3
:102F90000020005200FF0F002DE9F04F0C6885B0B3
:102FA000002C00F09D804FF0000CDFF850A263462B
:102FB00001279F4017EA040B00F08B804E6806F053
:102FC0000302551E012D40F28E80032A40F0CE8070
:102FD00002FA0CF2D54307683D402A4316F4403FFD
:102FE000026076D0DAF8542142F00202CAF8542185
:102FF000DAF8542102F002020392039A23F003024A
:1030000002F1B04203F0030ED2F808744FEA8E0EBC
:103010000F2505FA0EF527EA05056F4FB84202F5B0
:10302000806229D007F58067B84200F0AA806B4F14
:10303000B84200F0AC806A4FB84200F09C80694F03
:10304000B84200F0B080684FB84200F0B280674FDD
:10305000B84200F0A280664FB84200F0B080654FE1
:10306000B84200F0B280644FB8420CBF09270A276B
:1030700007FA0EFE45EA0E0595604FF0B0426FEA82
:103080000B071268F5024FF0B04554BF3A404BEAC7
:1030900002022A606D68B2024FF0B04254BF3D4058
:1030A0004BEA05055560D2F88450B2034FF0B042A8
:1030B00054BF3D404BEA0505C2F88450D2F8802049
:1030C000F5034FF0B04554BF3A404BEA0202C5F851
:1030D0008020013334FA03F20CF1020C7FF468AF64
:1030E00005B0BDE8F08FCD68D0F808E005FA0CF91E
:1030F000032505FA0CF82EEA080E49EA0E0585604C
:10310000D0F804E02EEA070EC6F300179F4047EA06
:103110000E076FEA08054760C76807EA050E8F6863
:1031200007FA0CF747EA0E07022AC76002FA0CF208
:103130007FF451AF4FEAD30E00EB8E0E03F0070879
:10314000DEF8207000970F694FEA880807FA08F741
:1031500001974FF00F09009F09FA08F827EA0809BC
:10316000019F47EA0907CEF8207034E7032505FAE6
:103170000CF5ED43D0E7032707FA0EFE45EA0E05EE
:103180007AE7012707FA0EFE45EA0E0574E70227E3
:1031900007FA0EFE45EA0E056EE7062707FA0EFE51
:1031A00045EA0E0568E7042707FA0EFE45EA0E0514
:1031B00062E7052707FA0EFE45EA0E055CE70727DA
:1031C00007FA0EFE45EA0E0556E7082707FA0EFE37
:1031D00045EA0E0550E700BF0000025800080258FB
:1031E000000C02580010025800140258001802582F
:1031F000001C0258002002580024025800440258C3
:103200000369194214BF01200020704702B9090464
:10321000816170474FF0B042D2F88810014200D16E
:10322000704708B5C2F888000BF02AF908BD00BF46
:1032300090F84120202A23D15FFA82FC90F84020A8
:10324000012A03461CD00268242000B583F84100FF
:10325000106820F001001060106820F480501060A9
:1032600010680143116011684FF0000E41F0010138
:10327000116083F841C083F840E070465DF804FBBC
:103280000220704790F84120202A22D100B55FFA31
:1032900082FE90F84020012A03461CD002682420B8
:1032A00083F84100106820F001001060106820F4DD
:1032B000706040EA0121116011684FF0000C41F08C
:1032C0000101116083F841E083F840C060465DF879
:1032D00004FB0220704702205DF804FB2DE9F04753
:1032E00082460E4617464FF02008DAF800309D69F6
:1032F00015F0040540F0C6809A6912F0100251D012
:103300001022DA61B946741C9A6951D1900600F115
:10331000B080002D40F0B0809C69A106FCD5C3F8B8
:103320001C800D2007244FF0050C0422012599690B
:1033300011F4807F27D04FF480724E05DA6126D4D5
:103340008D0579D460469A69950744BF00229A6238
:103350009A69D40703D49A6942F001029A615A68C3
:103360005C4C22405A60DAF84430002103432022AA
:10337000CAF844308AF840108AF841208AF842108E
:103380000120BDE8F087480551D542F008004FF410
:1033900080628C05DA61D6D540F002004FF40072ED
:1033A000DA61D0E7092003244FF0010C1546BEE78F
:1033B00092065ED4002D5FD1FDF74AFEA0EB090016
:1033C0008642DAF8003001D3002E9CD158689AF872
:1033D000422099690C04D2B20FD541040DD4202AA1
:1033E0000BD05A6842F480425A60FDF731FEDAF899
:1033F0000030814601E0DAF800309C6914F02004C6
:1034000081D1FDF725FEA0EB09001928F3D9DAF8E0
:1034100044308AF8404043F02003CAF84430012584
:103420008AF84180DAF800308AF84240E5E78905F9
:1034300004D542F00200B1E72046AFE7002D46D1A7
:103440009A69920621D4FDF703FEC01BB04202D850
:10345000002E7FF44AAFDAF84430202213430021D3
:10346000CAF844308AF840108AF841200120BDE8AB
:10347000F087002D3FF453AF0D2007244FF0050CCB
:10348000042254E70020BDE8F0879A69510703D56C
:10349000BAF82820002AF5D19A6912F010021CBF50
:1034A000102104224FF0200418BFD961CAF844202B
:1034B000DC615A6807490A4000215A608AF8414095
:1034C0008AF840108AF842100120BDE8F0871046C3
:1034D00039E700BF00E800FE2DE9F04782460E46BE
:1034E00017464FF02008DAF800309D6915F02005E6
:1034F00040F0C5809A6912F0100251D01022DA61B2
:10350000B946741C9A6951D1900600F1AF80002D24
:1035100040F0AF809C69A106FCD5C3F81C800D204B
:1035200007244FF0050C04220125996911F4807FCE
:1035300027D04FF480724E05DA6126D48D0579D4F8
:1035400060469A69910744BF00229A629A69D2073D
:1035500003D49A6942F001029A615A684A4C2240A7
:103560005A60DAF84430002103432022CAF844307C
:103570008AF840108AF841208AF842100120BDE8FC
:10358000F087480551D542F008004FF480628C0561
:10359000DA61D6D540F002004FF40072DA61D0E76C
:1035A000092003244FF0010C1546BEE792065DD4B6
:1035B000002D5ED1FDF74CFDA0EB09008642DAF844
:1035C000003001D3002E9CD158689AF842209969A6
:1035D0000C04D2B20FD541040DD4202A0BD05A6866
:1035E00042F480425A60FDF733FDDAF8003081463C
:1035F00001E0DAF800309C6914F0200481D1FDF775
:1036000027FDA0EB09001928F3D9DAF844308AF82D
:10361000404043F02003CAF8443001258AF8418035
:10362000DAF800308AF84240E5E7880504D542F030
:103630000200B1E72046AFE725BBFDF709FDC01B3F
:10364000B04202D8002E7FF44EAFDAF844300022A8
:1036500043F020032021CAF844308AF840208AF839
:1036600041108AF842200120BDE8F087002D3FF488
:1036700054AF0D2007244FF0050C042255E700201D
:10368000BDE8F08710465CE700E800FE00284FD058
:1036900010B590F84130044603F0FF02002B42D0F1
:1036A0002368242284F841201968626821F001010E
:1036B00022F0706219601A619A68E16822F400428F
:1036C00001299A60A2682AD042F4044202299A6031
:1036D00004BF4FF400625A605968226941F00071DA
:1036E00041F4004159606169D8680A43A16920F436
:1036F000004042EA0122E169D860206ADA600143B1
:103700001960196841F001011960002220236264E8
:1037100084F84130226384F84220104610BD42F400
:1037200000429A60D8E780F8402009F0B9FEB7E778
:10373000012070472DE9F84F1E4690F84130DDF822
:103740002880202B40F08D8090F84030012B0546DA
:1037500000F08780012380F840308B461746FDF744
:1037600077FC814605E0FDF773FCA0EB0900192802
:103770007AD82868846914F40044F4D1212385F8A8
:103780004130102385F842306C646E856B8D6F621A
:103790009BB2FF2B6C6375D86B8DA7499BB22B85B1
:1037A000DAB243681940CBF309030B4343EA0243FF
:1037B00043F0007343F400534360CBF3090B6B8D6C
:1037C0009BB2002B00F0EF804FF0200A866916F0C4
:1037D000020640F0D280836913F0100371D01023E9
:1037E000C3614F46B8F1FF3F83696FD1990600F17D
:1037F000E380002E40F0E38083699A06FCD5C0F890
:103800001CA00D210724052704230126826912F438
:10381000807F47D04FF48073C361530546D496052B
:1038200000F19380394683699E0744BF0023836279
:103830008369DC0703D4836943F001038361426831
:103840007E4B1A4042606B6C002420220B436B6459
:1038500085F8404085F8412085F842400120BDE8C8
:10386000F88F0220BDE8F88F6B6C002243F0200334
:1038700020216B6485F8402085F84110012085F8EF
:103880004220EFE743686C4A1A40CBF30903134325
:1038900043F0FF7343F49033FF222A85CBF3090BE7
:1038A00043608CE751054BD543F008014FF480632A
:1038B000C3619305B7D541F002014FF40073C361B2
:1038C000B1E70921032401271E469FE79B0673D415
:1038D000002E74D1FDF7BCFBC01B8045286803D3C4
:1038E000B8F1000F7FF47EAF416895F842308269ED
:1038F0001204DBB20DD54C040BD4202B09D0436845
:1039000043F480434360FDF7A3FB0746286800E0CB
:103910002868846914F020047FF464AFFDF798FBF5
:10392000C01B1928F4D96B6C286885F8404043F017
:1039300020036B64012685F841A085F84240E8E742
:10394000970504D543F00201B7E72146B5E7002EFD
:1039500060D1B8F1FF3F3FF439AFFDF779FBA0EB41
:103960000900804580D3B8F1000F3FF47DAF28688F
:10397000866916F002063FF42EAF696A2B8D11F8A6
:10398000012B82626A8D6962013A92B26A856A8D00
:10399000013B9BB292B22B8502B123B36B8D9BB2DC
:1039A000002B7FF413AF4A4641462846FFF794FDAB
:1039B000002847D0012055E7002E3FF420AF0D210D
:1039C00007240527042321E783691B0611D4FDF78B
:1039D0003FFBA0EB09008045FFF446AFB8F1000FB4
:1039E0003FF442AF2868B8F1FF3FEDD183691A0672
:1039F000FCD56B8D9BB2FF2B0ED94368104A134048
:103A00004BEA030343F0FF7343F48033FF222A851C
:103A10004360C3E7194606E76B8D09499BB22B85C6
:103A2000DAB243680B404BEA030343EA024343F034
:103A300000734360B2E700BF009800FC00E800FE9E
:103A4000009C00FC2B68064C2021D9615A6822405A
:103A50005A6085F8411085F8400085F8420001E77A
:103A600000E800FE2DE9F047984690F84130089EA6
:103A7000202B40F0928090F84030012B044600F05B
:103A80008C80012380F8403089461746FDF7E0FA24
:103A9000054605E0FDF7DCFA401B192800F28A8094
:103AA0002368986910F40040F4D1222284F8412060
:103AB000102284F842206064A4F82A80628D676234
:103AC00092B2FF2A6063C9F3090700F28280628D17
:103AD0004E4892B22285D1B25A6802403A4342EA35
:103AE000014242F0007242F410525A60638D9BB260
:103AF000002B3DD0DFF81C81DFF81CA14FF0FF093F
:103B000003E0638D9BB2002B32D02A46314620461B
:103B1000FFF7E4FB002876D12268636A526A1A70C4
:103B2000628D238D616A013A92B26285628D013B9A
:103B300001319BB292B261622385002AE1D0002B51
:103B4000DFD1701C22682BD193691906FCD5638DD7
:103B50009BB2FF2B49D95368A4F8289003EA0803C5
:103B60003B4343EA0A035360638D9BB2002BCCD1E5
:103B70002A4631462046FFF7AFFC002843D1236890
:103B8000234D2021D9615A682A405A6084F8411097
:103B900084F8400084F8420000E00220BDE8F0878D
:103BA00093691B06D3D4FDF753FA401B864201D319
:103BB000002EC6D1636C002243F0200320216364F1
:103BC00084F8402084F8411084F842200120BDE8A8
:103BD000F0875A680D490A403A4342F0FF7242F4B6
:103BE0009232FF2121855A6080E7638D9BB2238545
:103BF000D9B2536803EA080343EA01433B4343F065
:103C0000007353607DE70120BDE8F087009800FC59
:103C100000E800FE009C00FC0000FF012DE9F047D9
:103C200082B005460020019095F8410020284CD133
:103C30002C681E46A36913F4004346D1914695F8BB
:103C40004020012A41D00122C1F3090A4AF0007A3A
:103C500085F84020242285F84120C1F309084AF460
:103C6000005A6B64EB68012B0CBF534648F4205399
:103C70006360FDF7EDF92C68A269A36902F02002E8
:103C800003F01003134307462BD1711C21D04EB90A
:103C900048E02C68A269A36902F0200203F0100337
:103CA00013431ED1FDF7D4F9C01BB042F1D9202334
:103CB00085F841306B6C002243F0200301206B64D7
:103CC00085F8402002B0BDE8F087022002B0BDE8D0
:103CD000F087A369A16903F0200301F010010B43F1
:103CE000F7D0A369DA0650D5721C10D1A3699B06E0
:103CF000FCD51023E3612023E361019B4B4514D0E5
:103D0000019B01330193019B4B45ABD3CFE7A369E3
:103D10009806EED4FDF79CF9C01B86421CD3DEB199
:103D20002C68E1E7FDF794F9C1E7636843F4804349
:103D30006360711C05D1A3699A06FCD52023E36159
:103D4000DEE7A3699B06F9D4FDF782F9C01B864222
:103D500002D30EB12C68ECE76B6C002243F0200319
:103D600020216B6485F8402085F84110012085F8FA
:103D70004220ABE7A36999060CD4FDF769F9C01B93
:103D80008642E9D3002EE7D02C68731CF2D1A369D8
:103D90009806FCD520220023E261184685F84120D0
:103DA00085F8403092E700BF002800F0AA8070B587
:103DB00090F84D30044603F0FF02002B00F089809C
:103DC0000223226884F84D301368D90770D46068E4
:103DD00020F0020C0023BCF1040F13652CD00A283C
:103DE0002AD02169166DD4E902352B434F4D354059
:103DF0002B43A5692B43256A2B43656A2B43034359
:103E00000B4343F00103136540F6F87393611368A5
:103E1000E16923F480331360D36823F400030B4378
:103E2000BCF1040FD36048D00A2846D000200123FB
:103E3000206584F84D3070BD6369022B4ED0D4E903
:103E400002013B4B002920F0800014BF022601260E
:103E50009A42A0F130050CBF4FF480404FF48050DF
:103E600002F090F82169B5FA85F5B1F1007F4FEACB
:103E700055154DD0202323FA05F505FB06F6B0FBBA
:103E8000F6F000EB800063694200B2FBF3F2294BCD
:103E90000532A3FB0232C2F3C0031509120732D464
:103EA000FF2D26D9236D43F010030120236570BD3B
:103EB000136823F00103136089E7D368A16A23F034
:103EC00000430B43D36000200123206584F84D306C
:103ED000B1E780F84C2009F033FB71E721694FF41A
:103EE0000035136D23F0FF7323F480332B431365E8
:103EF00078E7A5B9D4E900204FF0807520F0020CD6
:103F0000EFE701207047012DCCD04FF08073C7E759
:103F10004FF4807323FA05F5B0FBF5F0B1E7606864
:103F2000226843EA054520F0020CDAE74090FFFDE5
:103F300000140058CDCCCCCC002945D0002A43D069
:103F400070B590F84D30012B0446DDB23AD190F8AF
:103F50004C30012B36D00026032380F84C50C16230
:103F600080F84D3008210665466302864286068742
:103F700046871B480AF07AFE606C1A4B03641A4BA2
:103F8000C3631A4B2268C364638EE16A9BB220321A
:103F9000FDF7DEFBD0B923689A68110403D49A6850
:103FA00042F400429A601A68D20703D41A6842F0B9
:103FB00001021A601A68002142F400721A6084F843
:103FC0004C1070BD022070BD01207047236D43F07E
:103FD0000803236584F84D5084F84C60284670BD72
:103FE000C80F0308514101085D41010885410108DE
:103FF00090F84C30012B3AD070B50446012680F879
:104000004C60FDF725F8636823F00202042A054698
:1040100001D00A2B2DD12268136813F400731BD032
:10402000136843F480634FF6FE76136005E0FDF7F6
:104030000FF8431BB34227D82268136813F40073A8
:10404000F5D11168012521F00101116084F84D506E
:1040500084F84C30184670BD226D012142F04002B8
:10406000226584F84D1084F84C30084670BD02205B
:104070007047236D002243F08003236584F84D6070
:1040800084F84C20304670BD0122002384F84D2076
:1040900084F84C30236D1343236584F84D200320AE
:1040A00070BD00BF90F84C20012A22D003460120A9
:1040B00083F84C0093F84D20824205D0002283F80B
:1040C0004D0083F84C2070471A680021022010B47C
:1040D00083F84D001965146844F0010414601468F5
:1040E00044F40074146083F84C1008465DF8044BE7
:1040F00070470220704700BF38B503689A6822F401
:1041000000420446406C9A609A6822F480429A60A9
:1041100010B1FDF76FFEA0B90025A06C38B1FDF716
:1041200069FE20B1236D43F0080301252365226851
:104130001368012123F00103136084F84D10284611
:1041400038BD236D43F0080301252365E5E700BF73
:1041500008B5806B09F048FD08BD00BF08B5C3690C
:10416000806B4BB901688A684FF0010C22F4004261
:104170008A60438680F84DC009F040FD08BD00BF4D
:10418000704700BF806B016808B58B6800224FF054
:10419000010C23F440438B604286428780F84DC077
:1041A000036D43F008030365FFF7EAFF08BD00BF96
:1041B00038B5104CE36813F0040FE36805D103F041
:1041C0000703181A18BF012038BD23F0070318434E
:1041D000E060FCF73DFF054605E0FCF739FF401BBA
:1041E000B0F57A7F04D863689B04F6D5002038BD0B
:1041F000012038BD0048025840B338B5D0E900313D
:10420000826804464CF6CC40186045F25550186060
:1042100059609A60FCF71CFF23680546DA6851076D
:104220000AD0FCF715FF431B312B2368F6D9DA6857
:104230005207F3D0032038BDE268196991420ABFE2
:104240004AF6AA221A611A60002038BD0120704780
:1042500003684AF6AA2200201A6070473D4B30B42A
:10426000996A9C6ADD6A5A6B14F47C7FC4F305106A
:104270003AD0C2F3CC0205F0010505FB02F207EECD
:10428000902A01F003010129F8EEE77A02D0022911
:1042900052D059B307EE100A9FED2F6AB8EEC77AD5
:1042A000C6EE076A1B6BC3F308039FED2C6A07EE8B
:1042B000103A67EE867AB8EEC77AB7EE006A77EE04
:1042C000277A77EE867A67EEA67A224B1B6BC3F3CA
:1042D0004623013307EE103AB8EEC77AC7EE876A75
:1042E000FCEEE67A17EE900A30BC70471A68920628
:1042F00029D519681A4A1B6BC1F3C101CA4007EEE0
:10430000102AF8EEC76A07EE100AB8EEC76AC3F3C0
:10431000080386EE867A9FED116A06EE903A67EE04
:10432000867AF8EEE66AB7EE006A76EEA77A77EE5E
:10433000867A67EE277AC8E707EE100A9FED096ACA
:10434000B8EEC77AACE707EE100A9FED076AB8EE41
:10435000C77AA5E7004402580024744A00000039D7
:104360000090D0030080BB4B0024744C002800F068
:10437000CE81F8B50368D90704463BD596490A694A
:10438000896A02F03802102A00F0FD80182A00F035
:10439000F5806368B3F5803F18D0002B00F054819E
:1043A000B3F5A02F00F05882B3F5A81F8A4B1A6806
:1043B00000F0188222F480321A601A6822F48022F7
:1043C0001A601A6822F480121A6004E0824A1368A4
:1043D00043F480331360FCF73BFE7F4E054605E057
:1043E000FCF736FE401B642800F22C8133689B03E7
:1043F000F6D523689D077ED4D90628D576490A6963
:10440000896A02F03802082A00F0CD80182A00F0EC
:10441000C580E369704D002B00F052812B6843F09A
:1044200080032B60FCF714FE064605E0FCF710FE47
:10443000801B022800F206812B68DB05F6D5EB68AD
:10444000226A23F07C5343EA0263EB6023681D0772
:1044500016D56369604D002B00F010816B6F43F03F
:1044600001036B67FCF7F4FD064605E0FCF7F0FD81
:10447000801B022800F2E6806B6F9807F6D5236850
:104480009A0616D5A369544D002B00F008812B68BD
:1044900043F480532B60FCF7DBFD064605E0FCF798
:1044A000D7FD801B022800F2CD802B689F04F6D533
:1044B0002368590700F18780606AD0B1464D2B69A7
:1044C00003F03803182B00F099812B68022823F0A1
:1044D00080732B6000F01D81FCF7BAFD044605E0F7
:1044E000FCF7B6FD001B022800F2AC802B689B0194
:1044F000F6D40020F8BD384A1369926A13F03803E5
:1045000022D1354BE2681B68590701D5002A43D0F8
:10451000314D2B6823F0190313432B60FCF798FDF2
:10452000064605E0FCF794FD801B022800F28A8015
:104530002B685B07F6D56B68226923F0FE4343EADC
:1045400002636B60236857E7182B00F0DC80224D74
:10455000E2682B68002A00F0C58023F0190313439A
:104560002B60FCF775FD064604E0FCF771FD801B2F
:10457000022867D82B685F07F7D5DCE701F0030155
:1045800002297FF406AF144A126892037FF532AF16
:104590006268002A7FF42EAF0120F8BD01F003010C
:1045A00001297FF436AF0C4A1268D20502D5E269C0
:1045B000802AF1D10849206ACA6822F07C5242EA76
:1045C0000062CA6043E7054D2B6843F480732B609B
:1045D000FCF73EFD064608E0004402580048025839
:1045E000FCF736FD801B64282CD82B68DA05F7D53C
:1045F000A368012B00F05E81002B00F03B81052BAE
:1046000000F05E81852BAA4B1A6F00F0678122F0C3
:1046100001021A671A6F22F004021A671A6F22F059
:1046200080021A67FCF714FDA14E054641F2883757
:1046300004E0FCF70DFD401BB84203D8336F9B0725
:10464000F7D539E70320F8BD994D2B6823F4803363
:104650002B602B6823F480132B602B6823F48023BA
:104660002B60FCF7F5FC064604E0FCF7F1FC801B30
:104670006428E7D82B689F03F7D4BAE66B6F23F062
:1046800001036B67FCF7E4FC064604E0FCF7E0FC82
:10469000801B0228D6D86B6F9907F7D4EFE62B68FA
:1046A00023F480532B60FCF7D3FC064604E0FCF7B0
:1046B000CFFC801B0228C5D82B689804F7D4F7E6F6
:1046C0002B6823F080032B60FCF7C2FC064604E055
:1046D000FCF7BEFC801B0228B4D82B68DF05F7D49A
:1046E0002368B4E623F001032B60FCF7B1FC064617
:1046F00004E0FCF7ADFC801B0228A3D82B68580708
:10470000F7D4236878E690077FF421AFF9E601201B
:104710007047FCF79DFC064604E0FCF799FC801B03
:1047200002288FD82B689901F7D4AB6AA16AE26A94
:104730005F4E23F47C7323F003030B4343EA02131D
:10474000AB62D4E90D32216B013B013A5B021204EA
:1047500002F4FE0201399BB21343C1F30802134372
:10476000E26B013A120602F0FE4213432B63EB6A3E
:1047700023F00103EB626B6BA26C23F47F4323F005
:10478000F80343EAC2036B63EB6A226C23F00C0369
:104790001343EB62EB6A626C23F002031343EB6298
:1047A000EB6A43F48033EB62EB6A43F40033EB6271
:1047B000EB6A43F48023EB62EB6A43F00103EB62A4
:1047C0002B6843F080732B60FCF742FC044605E045
:1047D000FCF73EFC001B02283FF634AF33689A0119
:1047E000F6D586E642F480221A601A6842F48012F6
:1047F0001A601A6842F480321A60ECE50128AB6A4C
:104800002D6B3FF477AEA26A03F0030191427FF46F
:10481000C3AEE26AC3F3051393427FF4BDAE236BCC
:10482000C5F30802013B9A427FF4B6AE636BC5F351
:104830004622013B9A427FF4AFAEA36BC5F306421A
:10484000013B9A427FF4A8AEE06BC5F306650138E0
:10485000281A18BF0120F8BD154B1A6842F48022AF
:104860001A601A6822F480121A601A6842F48032C0
:104870001A60B0E50E4D2B6F23F001032B672B6FF1
:1048800023F080032B672B6F23F004032B67FCF7C7
:10489000DFFB41F28837064605E0FCF7D9FB801BB9
:1048A000B8423FF6CFAE2B6F9807F6D404E600BFB0
:1048B000004402580F4A136F43F001031367B1E637
:1048C0000C4B1A6F42F004021A671A6F22F0800232
:1048D0001A671A6F42F001021A67A3E642F0040257
:1048E0001A671A6F42F080021A671A6F42F00102CB
:1048F0001A6797E600440258494A136903F03803DF
:10490000102B04D0182B0ED01BB1464870474648D8
:104910007047136899064DD51068444BC0F3C10029
:1049200023FA00F07047916A30B4946AD56A536BE9
:1049300014F47C7FC4F305103AD0C3F3CC0305F024
:10494000010505FB03F307EE903A01F0030101298D
:10495000F8EEE77A02D002292ED0A1B307EE100AB2
:104960009FED336AB8EEC77AC6EE076A136BC3F3DE
:1049700008039FED306A07EE103A67EE867AB8EECC
:10498000C77AB7EE006A77EE277A77EE867A67EE17
:10499000A67A234B1B6BC3F34623013307EE103A71
:1049A000B8EEC77AC7EE876AFCEEE67A17EE900A91
:1049B00030BC70471D48704707EE100A9FED1E6A15
:1049C000B8EEC77AD0E713689B0622D51168174B5B
:1049D000C1F3C101CB4007EE103AF8EEC76A07EE0B
:1049E000100AB8EEC76A136B86EE867AC3F3080323
:1049F0009FED106A06EE903A67EE867AF8EEE66A68
:104A0000B7EE006A76EEA77A77EE867A67EE277AB7
:104A1000BFE707EE100A9FED096AB8EEC77AA3E771
:104A20000044025800093D00000077010090D003C7
:104A30000024744A000000390080BB4B0024744CF1
:104A4000002800F00D818C4A136803F00F038B429D
:104A50002DE9F0410D4604460CD2136823F00F03F4
:104A60000B431360136803F00F038B4202D0012045
:104A7000BDE8F08123685F070BD5804920698A690A
:104A800002F07002904204D98A6922F07002024357
:104A90008A611E070BD579496069CA6902F0700204
:104AA000904204D9CA6922F070020243CA61D80652
:104AB0000BD57249A069CA6902F4E062904204D938
:104AC000CA6922F4E0620243CA6199060BD56B49B8
:104AD000E0690A6A02F07002904204D90A6A22F080
:104AE000700202430A629A0740F1AC806348E168B1
:104AF000826902F00F02914204D9826922F00F020A
:104B00000A438261D80730D55C4AA168936923F4CF
:104B100070630B43936161681368022900F0A280FF
:104B2000032900F09980012900F0A28058079ED542
:104B3000524E336923F007030B433361FCF788FAC5
:104B400041F28838074605E0FCF782FAC01B404571
:104B500000F28C803369626803F03803B3EBC20F54
:104B6000F2D12368990706D5E1684448826902F0CA
:104B70000F028A426AD840490A6802F00F02AA422C
:104B80000AD90A6822F00F022A430A600A6802F072
:104B90000F02AA427FF46BAF5A070BD53749206941
:104BA0008A6902F07002904204D28A6922F070028F
:104BB00002438A611F070BD530496069CA6902F058
:104BC0007002904204D2CA6922F070020243CA61A4
:104BD000DE060BD52949A069CA6902F4E062904259
:104BE00004D2CA6922F4E0620243CA619D060BD571
:104BF000224AE169136A03F07003994204D2136AEE
:104C000023F070030B431362FFF776FE1B4B1C4926
:104C10009A699B691B4D1C4CC2F3032203F00F03DE
:104C20008A5CCB5C194902F01F0220FA02F203F001
:104C30001F0322FA03F328682360BDE8F0410A60ED
:104C400008F0CEBEDA073FF55FAF94E7826922F045
:104C50000F02114381618EE79F013FF569AF06E7BF
:104C6000012070479B033FF563AF00E70320FFE699
:104C7000DE053FF55DAFFAE6002000520044025821
:104C80006011030804000024100000240C0000241C
:104C9000184A136903F03803102B10B51AD0182BDB
:104CA00023D0CBB11448134B14499A699B69144C17
:104CB000C2F3032203F00F038A5CCB5C114902F0BC
:104CC0001F0220FA02F203F01F0022FA00F0206017
:104CD0000A6010BD0C48E6E713689B0608D5126809
:104CE0000A48C2F3C102D040DDE7FFF7B7FADAE7BE
:104CF0000648D8E70044025800093D006011030847
:104D0000100000240C000024000077010090D00364
:104D10001D4A136903F03803102B10B523D0182B4C
:104D20002CD013B31948184A194994699369C4F3EC
:104D3000032C03F00F0311F80CC0CB5C154C0CF0E6
:104D40001F0C20FA0CF003F01F0320FA03F323607A
:104D5000114C2060D269C2F30212885C00F01F007F
:104D600023FA00F010BD0D48DDE713689B0608D557
:104D700013680B48C3F3C103D840D4E7FFF76EFABA
:104D8000D1E70748CFE700BF0044025800093D00C3
:104D900060110308100000240C00002400007701BB
:104DA0000090D0031D4A136903F03803102B10B58F
:104DB00023D0182B2CD013B31948184A19499469D9
:104DC0009369C4F3032C03F00F0311F80CC0CB5C00
:104DD000154C0CF01F0C20FA0CF003F01F0320FA06
:104DE00003F32360114C2060D269C2F30222885C75
:104DF00000F01F0023FA00F010BD0D48DDE7136836
:104E00009B0608D513680B48C3F3C103D840D4E709
:104E1000FFF724FAD1E70748CFE700BF0044025864
:104E200000093D0060110308100000240C0000245C
:104E3000000077010090D003134B3F2202601A69F3
:104E400002F0070242609A6902F4706282609A6915
:104E500002F00F02C2609A6902F070020261DA6920
:104E600002F070024261DA6902F4E06282611B6A58
:104E700010B403F07003054CC36123685DF8044B64
:104E800003F00F030B6070470044025800200052EB
:104E9000F8B53B4CA36A03F00303032B69D02368E6
:104EA00023F08063236006460F46FCF7D1F80546E1
:104EB00004E0FCF7CDF8431B022B58D823681A01F5
:104EC000F7D4A36A326823F47C3343EA0233A36243
:104ED000D6E90232013B013A5B02120402F4FE02FF
:104EE0009BB213437268013AC2F30802134332695A
:104EF000013A120602F0FE421343A363E36A7269A9
:104F000023F0C0031343E362E36AB26923F0200392
:104F10001343E362E36A23F01003E362E36BF26995
:104F200023F47F4323F0F80343EAC203E363E36A15
:104F300043F01003E362E36AEFB1012F0CBF43F4C7
:104F4000801343F40013E3620D4C236843F0806345
:104F50002360FCF77DF8054604E0FCF779F8401B78
:104F6000022804D823681B01F7D50020F8BD0320D0
:104F7000F8BD0120F8BD43F40023E362E4E700BF7D
:104F800000440258F8B53B4CA36A03F00303032B1B
:104F900069D0236823F08053236006460F46FCF750
:104FA00057F8054604E0FCF753F8431B022B58D88A
:104FB00023689A00F7D4A36A326823F07C7343EA2B
:104FC0000253A362D6E90232013B013A5B021204AA
:104FD00002F4FE029BB213437268013AC2F3080264
:104FE00013433269013A120602F0FE42134323646E
:104FF000E36A726923F440631343E362E36AB269CC
:1050000023F400731343E362E36A23F48073E362DF
:10501000636CF26923F47F4323F0F80343EAC2038D
:105020006364E36A43F48073E362E36AEFB1012FE0
:105030000CBF43F4000343F08073E3620D4C23681C
:1050400043F080532360FCF703F8054604E0FBF7C8
:10505000FFFF401B022804D823689B00F7D50020DF
:10506000F8BD0320F8BD0120F8BD43F48003E362DE
:10507000E4E700BF004402582DE9F843036813F049
:10508000006604461CD0826EB2F5001F00F0AC84AE
:1050900023D8002A00F0B883B2F5801F20D1022166
:1050A0000430FFF7F5FE0646002E40F0A584A26E00
:1050B00023689A48016D21F440110A4302650026D5
:1050C000D80511D5626D042A00F2E284DFE812F0FF
:1050D0006C0473045804CE02CE02B2F5401FE8D02F
:1050E000D8054FF00106EDD4354699051BD5A26DC4
:1050F000802A00F0678400F2C780002A00F07E83D7
:10510000402A40F0CA800021201DFFF7C1FE23681D
:105110000546002D40F054838049A06D0A6D22F4AD
:10512000E07202430A655A051DD5E26DB2F5806F43
:1051300000F0518400F2B480002A00F05383B2F5ED
:10514000007F40F0B7800021201DFFF7A1FE2368FB
:105150000546002D40F030837049E06D0A6D22F461
:10516000606202430A659F0118D5A26C202A00F0F4
:10517000E38300F2A2803AB1102A40F0A18067498F
:10518000CA6A42F40032CA62002D40F04583634986
:10519000A06CCA6C22F030020243CA64D8041DD548
:1051A000226EB2F5005F00F0F78300F28C80002AD7
:1051B00000F01E83B2F5805F40F08D800021201D3D
:1051C000FFF766FE23680546002D40F0F78253493D
:1051D000206E0A6D22F4E04202430A65990419D553
:1051E000626EB2F5003F00F08B8377D842B1B2F522
:1051F000803F7BD10121201DFFF74AFE2368054631
:10520000002D40F00B834549606E0A6D22F4E022C8
:1052100002430A655A041BD5D4F8AC20B2F1005FF2
:1052200000F0808365D842B1B2F1805F68D101217E
:10523000201DFFF72DFE23680546002D40F0078353
:105240003649D4F8AC008A6D22F0E04202438A6508
:105250001F040DD5626FB2F1805F00F05B83B2F185
:10526000005F00F03782002A00F03A8201263546BE
:10527000D8015FD5626C032A00F20784DFE812F0E0
:10528000560023035000560022F04001B1F5807F04
:105290003FF43FAFC02A3FF43CAF0126354642E71A
:1052A00022F40071B1F5006F3FF453AFB2F5C06F57
:1052B0003FF44FAF0126354655E7302A3FF464AF3F
:1052C000012635466AE7B2F5405F3FF47DAFB2F59F
:1052D000804F3FF479AF012635467FE722F48031D5
:1052E000B1F5802F8CD0B2F5403F89D001263546EC
:1052F00090E7B2F1A04FA0D005D9B2F1C04F9CD039
:1053000001263546A4E7B2F1405F96D0B2F1804F56
:10531000F6D1002D40F09B8292E700BF0044025876
:105320000221201DFFF7B4FD23680546002D00F083
:1053300090822E46590200F1F181DF0730D5D4F872
:105340008020282A2AD8DFE812F0DD012900290070
:10535000290029002900290029006E0329002900BD
:1053600029002900290029002900D6012900290047
:1053700029002900290029002900DD012900290030
:1053800029002900290029002900DD012900290020
:1053900029002900290029002900DD0101263546C0
:1053A000980716D5E26F052A00F27583DFE812F040
:1053B0000D00310306000D000D000D00012104F168
:1053C0002400FFF7DFFD23680546002D00F028824A
:1053D0002E46590717D5D4F89820052A00F2528393
:1053E000DFE812F00D000D0306000D000D000D00AA
:1053F000012104F12400FFF7C5FD23680546002DB7
:1054000000F01C822E469A061DD5D4F89420B2F1E5
:10541000005F00F06B8200F2E5804AB1B2F1805F7C
:1054200040F0EA800021201DFFF732FD2368054689
:10543000002D40F0EF81A649D4F894004A6D22F087
:10544000E04202434A655F061DD5D4F8A020B2F5BC
:10545000006F00F0418200F2D2804AB1B2F5806F55
:1054600040F0D7800021201DFFF712FD236805467C
:10547000002D40F0F6819649D4F8A0008A6D22F400
:10548000E05202438A6518061DD5D4F8A420B2F56F
:10549000804F00F00E8200F2BF804AB1B2F5005F8B
:1054A00040F0C4800021201DFFF7F2FC2368054670
:1054B000002D40F0BD818649D4F8A4008A6D22F405
:1054C000604202438A6519070BD5D4F88810B1F5FC
:1054D000805F00F048827E48426D22F440520A43C9
:1054E0004265DA060BD5D4F89C10B1F5807F00F048
:1054F0002D827748826D22F440720A4382651F0331
:105500000ED5D4F8A810B1F5803F00F0BB80B1F5FE
:10551000003F00F0BE80002900F0BB810126354627
:1055200058030FD5D4F88C20B2F5001F00F0BD80D1
:10553000B2F5401F00F0C080B2F5801F00F0B181CD
:1055400001263546D90309D5E26C002A00F098817E
:10555000B2F5803F00F03681012635469A0000F111
:105560001E819F0365D4301E18BF0120DE0206D5C0
:105570005749A56F0A6D22F000422A430A659D0231
:1055800006D55349E56E0A6D22F080722A430A65FA
:10559000190506D54E49256F8A6D22F000622A430F
:1055A0008A655A0009D54A4A116921F400411161FE
:1055B0001169D4F8B45029431161002B06DA44492B
:1055C000256DCA6C22F040522A43CA641B0207D5DB
:1055D0003F4AD4F89010536D23F440030B435365B6
:1055E000BDE8F88322F08051B1F1804F3FF420AF45
:1055F000B2F1405F3FF41CAF0126354623E722F4A9
:105600008061B1F5805F3FF433AFB2F5406F3FF496
:105610002FAF0126354636E722F40051B1F5004F91
:105620003FF446AFB2F5C04F3FF442AF01263546D6
:1056300049E7D4F88420B2F5807F00F0188106D9BC
:1056400022F48071B1F5007F03D001208EE7002A9B
:10565000FBD1002DF9D11E4D696D21F44071301E32
:1056600042EA010218BF01206A657FE73546002D36
:1056700040F0A0801649606D0A6D22F007020243D7
:105680000A6532E5022104F12400FFF77BFC236860
:105690000546002D40F0D0800D49D4F8A8008A6D51
:1056A00022F4403202438A653AE7012104F12400E2
:1056B000FFF768FC23680546002D40F0BB800449D5
:1056C000D4F88C004A6D22F4401202434A6539E74F
:1056D000004402580121201DFFF7DAFB236805462C
:1056E000002D40F0C280AA49606F0A6D22F040523E
:1056F00002430A65BCE5012104F12400FFF742FCE6
:1057000023680546002D40F0AE80A149D4F8800002
:105710004A6D22F0380202434A6541E69D4F3B68DC
:1057200043F480733B60FBF793FC804606E0FBF795
:105730008FFCA0EB0800642800F27F813B68DA054B
:10574000F5D5002D40F09B81914AD4F8B030116F0F
:10575000594011F4407F0BD0116F106F40F480302E
:105760001067106F21F4407120F4803010671167CA
:10577000B3F5807F00F0658103F44072B2F5407F9D
:1057800000F0738182490A6922F47C520A61804ADE
:10579000116FC3F30B030B4313672368CDE502219D
:1057A00004F12400FFF7EEFB236800283FF4D9AE94
:1057B0000126D6E62E4698E42E46D4E42E460DE584
:1057C0002E46B0E40221201DFFF762FB0546236848
:1057D000002D5CD16E49E06CCA6C22F48032024329
:1057E000CA64BBE66A49CA6A42F40032CA62B0E4DB
:1057F0006749CA6A42F40032CA62E5E46449CA6A87
:1058000042F40032CA6284E46148C16A41F4003162
:10581000C1624EE42E4616E62E46BFE42E46F9E45B
