:020000040800F2
:10000000000010246D1A030819B902088DB90208FE
:10001000ABB90208B1B90208B7B902080000000084
:10002000000000000000000000000000A1700208B5
:10003000BDB9020800000000C1720208CBB9020875
:10004000BD1A0308BD1A0308BD1A030865BA0208E1
:10005000BD1A0308BD1A0308BD1A0308BD1A030818
:1000600079BA020897BA0208BD1A0308BD1A030834
:10007000D9B90208BD1A0308EDB90208BD1A030870
:10008000B5BB0208BD1A0308BD1A0308BD1A030850
:10009000BD1A0308BD1A0308BD1A0308BD1A0308D8
:1000A000BD1A0308BD1A0308BD1A030801BA0208E5
:1000B000BD1A0308BD1A030829BA0208BD1A0308AD
:1000C000BD1A0308BD1A0308BD1A0308BD1A0308A8
:1000D000BD1A0308BD1A0308BD1A0308BD1A030898
:1000E000BD1A0308BD1A0308BD1A0308BD1A030888
:1000F000BD1A0308BD1A0308BD1A0308BD1A030878
:10010000BD1A0308BD1A0308BD1A030815BA020870
:10011000BD1A0308ADCD02083DBA0208BD1A030896
:10012000BD1A0308BD1A030845BB020859BB0208E3
:10013000BD1A03080000000000000000BD1A0308FB
:10014000BD1A0308BD1A0308BD1A0308BD1A030827
:10015000BD1A0308BD1A0308BD1A0308BD1A030817
:10016000BD1A0308BD1A0308BD1A0308BD1A030807
:10017000BD1A030851BA0208BD1A030800000000A6
:10018000BD1A0308BD1A0308BD1A0308BD1A0308E7
:10019000BD1A0308BD1A0308BD1A0308BD1A0308D7
:1001A000BD1A0308BD1A0308BD1A0308BD1A0308C7
:1001B000BD1A0308BD1A0308BD1A0308BD1A0308B7
:1001C000BD1A0308BD1A030800000000000000006B
:1001D0000000000000000000BD1A0308000000003D
:1001E000000000000000000000000000000000000F
:1001F0000000000000000000BD1A0308BD1A03083B
:10020000BD1A0308BD1A030800000000BD1A030848
:10021000BD1A0308BD1A0308BD1A0308BD1A030856
:10022000BD1A0308BD1A0308BD1A03080000000028
:10023000BD1A0308BD1A030800000000BD1A030818
:10024000BD1A0308BD1A0308BD1A0308BD1A030826
:10025000BD1A0308BD1A0308BD1A0308BD1A030816
:10026000BD1A0308BD1A0308BD1A0308BD1A030806
:10027000BD1A0308BD1A0308BD1A030800000000D8
:10028000BD1A0308BD1A030800000000BD1A0308C8
:1002900000000000BD1A0308BD1A0308000000009A
:0C02A00000000000BD1A0308BD1A03088E
:04400000EFBEADDE84
:020000040801F1
:100000001203CADE0FFFFFFF802F0408882F0408A9
:10001000BC2E0408802E0408011007001403CADE59
:100020000FFFFFFF802F0408882F0408FC2F04080F
:10003000C02F040801100700441604080000020045
:1000400011F00208C01D04084C160408000002004C
:1000500011F00208C01D0408501604080000020038
:100060000DE20208041D04085816040800000200EE
:1000700051E202085820040860160408000002003B
:1000800031EB0208301D0408681604080000020065
:1000900091F00208501D04087016040800000200C8
:1000A0005DE30208741D0408041A0408010004003A
:1000B000C5010308A4240408000000000200010098
:1000C0000000000050240408101A04084200020036
:1000D000F501030868240408A017040801000200C1
:1000E00045F2020878210408A8170408010002005C
:1000F000ADF20208A4210408B017040801000200B0
:1001000015F30208D0210408B81704080100020002
:1001100085F40208E0210408C41704080100020065
:100120007DF30208E0200408B81904080100020069
:1001300049FA02081824040878160408010002008D
:1001400099E20208441E0408801604080100020017
:100150006DE20208801E04088816040801000200EF
:1001600095E70208EC1E040890160408010002003E
:10017000A1E50208841F04089C160408010002007F
:10018000C5E2020880200408A41604080100020049
:100190001DE30208A0200408A019040801000200C1
:1001A000B9F50208BC220408A819040801000200DD
:1001B000F5F60208FC220408B01904080100020048
:1001C0004DF802086C230408C0190408020000005E
:1001D00015010308F500030865D9020849DF020884
:1001E000B8000108EDBD0208DDD20208E9D302081B
:1001F00029D4020851FB020810B5054C237833B905
:10020000044B13B10448AFF300800123237010BDE9
:10021000E00E002400000000C80D040808B5034BE0
:100220001BB103490348AFF3008008BD0000000084
:10023000E40E0024C80D040810F8012B11F8013B4E
:10024000012A28BF9A42F7D0D01A7047034613F804
:10025000012B002AFBD1181A01387047000000005A
:1002600001F0FF01102A2BDB10F0070F08D010F867
:10027000013B013A8B422DD010F0070F42B3F6D16B
:10028000F0B441EA012141EA014122F007047FF084
:1002900000070023F0E80256083C85EA010586EADB
:1002A000010685FA47F5A3FA87F586FA47F6A5FA17
:1002B00087F68EB9EED1F0BC01F0FF0102F0070223
:1002C00032B110F8013B013A83EA010313B1F8D1CE
:1002D0000020704701387047002D06BF35460338AF
:1002E000073815F0010F07D1013015F4807F02BFE8
:1002F000013015F4C03F0130F0BC0138704700BF39
:1003000081F0004102E000BF83F0004330B54FEAC6
:1003100041044FEA430594EA050F08BF90EA020F33
:100320001FBF54EA000C55EA020C7FEA645C7FEAC6
:10033000655C00F0E2804FEA5454D4EB5555B8BFE9
:100340006D420CDD2C4480EA020281EA030382EA5A
:10035000000083EA010180EA020281EA0303362DEC
:1003600088BF30BD11F0004F4FEA01314FF4801CBF
:100370004CEA113102D0404261EB410113F0004FD1
:100380004FEA03334CEA133302D0524263EB430388
:1003900094EA050F00F0A780A4F10104D5F1200E26
:1003A0000DDB02FA0EFC22FA05F2801841F1000181
:1003B00003FA0EF2801843FA05F359410EE0A5F155
:1003C00020050EF1200E012A03FA0EFC28BF4CF086
:1003D000020C43FA05F3C01851EBE37101F000453C
:1003E00007D54FF0000EDCF1000C7EEB00006EEB49
:1003F0000101B1F5801F1BD3B1F5001F0CD34908D3
:100400005FEA30004FEA3C0C04F101044FEA445229
:1004100012F5800F80F09A80BCF1004F08BF5FEAB0
:10042000500C50F1000041EB045141EA050130BD90
:100430005FEA4C0C404141EB0101013C28BFB1F5A2
:10044000801FE9D291F0000F04BF01460020B1FAED
:1004500081F308BF2033A3F10B03B3F120020CDAC0
:100460000C3208DD02F1140CC2F10C0201FA0CF09E
:1004700021FA02F10CE002F11402D8BFC2F1200C03
:1004800001FA02F120FA0CFCDCBF41EA0C019040B9
:10049000E41AA2BF01EB0451294330BD6FEA040402
:1004A0001F3C1CDA0C340EDC04F11404C4F12002ED
:1004B00020FA04F001FA02F340EA030021FA04F3FF
:1004C00045EA030130BDC4F10C04C4F1200220FA56
:1004D00002F001FA04F340EA0300294630BD21FA94
:1004E00004F0294630BD94F0000F83F4801306BF5A
:1004F00081F480110134013D4EE77FEA645C18BF4E
:100500007FEA655C29D094EA050F08BF90EA020FE4
:1005100005D054EA000C04BF1946104630BD91EADC
:10052000030F1EBF0021002030BD5FEA545C05D1DF
:100530004000494128BF41F0004130BD14F580041E
:100540003CBF01F5801130BD01F0004545F0FE4192
:1005500041F470014FF0000030BD7FEA645C1ABFC7
:10056000194610467FEA655C1CBF0B46024650EAFE
:10057000013406BF52EA033591EA030F41F400212A
:1005800030BD00BF90F0000F04BF0021704730B5B0
:100590004FF4806404F132044FF000054FF0000185
:1005A00050E700BF90F0000F04BF0021704730B546
:1005B0004FF4806404F1320410F0004548BF40421B
:1005C0004FF000013EE700BF42004FEAE2014FEA70
:1005D00031014FEA02701FBF12F07F4393F07F4F4B
:1005E00081F06051704732F07F4208BF704793F04E
:1005F0007F4F04BF41F40021704730B54FF4607461
:1006000001F0004521F000411CE700BF50EA010263
:1006100008BF704730B54FF000050AE050EA01020C
:1006200008BF704730B511F0004502D5404261EB7C
:1006300041014FF4806404F132045FEA915C3FF4BD
:10064000D8AE4FF003025FEADC0C18BF03325FEA5A
:10065000DC0C18BF033202EBDC02C2F1200300FA0B
:1006600003FC20FA02F001FA03FE40EA0E0021FA30
:1006700002F11444BDE600BF70B54FF0FF0C4CF41E
:10068000E06C1CEA11541DBF1CEA135594EA0C0FD0
:1006900095EA0C0F00F0DEF82C4481EA030621EA0B
:1006A0004C5123EA4C5350EA013518BF52EA033546
:1006B00041F4801143F4801338D0A0FB02CE4FF0F8
:1006C0000005E1FB02E506F00042E0FB03E54FF028
:1006D0000006E1FB03569CF0000F18BF4EF0010E20
:1006E000A4F1FF04B6F5007F64F5407404D25FEA1C
:1006F0004E0E6D4146EB060642EAC62141EA5551CF
:100700004FEAC52040EA5E504FEACE2EB4F1FD0C10
:1007100088BFBCF5E06F1ED8BEF1004F08BF5FEA8E
:10072000500E50F1000041EB045170BD06F0004640
:1007300046EA010140EA020081EA0301B4EB5C04ED
:10074000C2BFD4EB0C0541EA045170BD41F48011E5
:100750004FF0000E013C00F3AB8014F1360FDEBF0A
:10076000002001F0004170BDC4F10004203C35DAE6
:100770000C341BDC04F11404C4F1200500FA05F369
:1007800020FA04F001FA05F240EA020001F000420A
:1007900021F0004110EBD37021FA04F642EB060180
:1007A0005EEA430E08BF20EAD37070BDC4F10C04AA
:1007B000C4F1200500FA04F320FA05F001FA04F26E
:1007C00040EA020001F0004110EBD37041F100015A
:1007D0005EEA430E08BF20EAD37070BDC4F1200565
:1007E00000FA05F24EEA020E20FA04F301FA05F2CD
:1007F00043EA020321FA04F001F0004121FA04F275
:1008000020EA020000EBD3705EEA430E08BF20EA44
:10081000D37070BD94F0000F0FD101F0004640007E
:1008200041EB010111F4801F08BF013CF7D041EA00
:10083000060195F0000F18BF704703F00046520004
:1008400043EB030313F4801F08BF013DF7D043EAD5
:100850000603704794EA0C0F0CEA135518BF95EA8B
:100860000C0F0CD050EA410618BF52EA4306D1D112
:1008700081EA030101F000414FF0000070BD50EA31
:10088000410606BF1046194652EA430619D094EABB
:100890000C0F02D150EA013613D195EA0C0F05D1A5
:1008A00052EA03361CBF104619460AD181EA0301F9
:1008B00001F0004141F0FE4141F470014FF00000B1
:1008C00070BD41F0FE4141F4780170BD70B54FF04C
:1008D000FF0C4CF4E06C1CEA11541DBF1CEA1355CC
:1008E00094EA0C0F95EA0C0F00F0A7F8A4EB0504AE
:1008F00081EA030E52EA03354FEA013100F08880A5
:100900004FEA03334FF0805545EA131343EA12636D
:100910004FEA022245EA111545EA10654FEA002622
:100920000EF000419D4208BF964244F1FD0404F5DB
:10093000407402D25B084FEA3202B61A65EB030537
:100940005B084FEA32024FF480104FF4002CB6EBF4
:10095000020E75EB030E22BFB61A754640EA0C0074
:100960005B084FEA3202B6EB020E75EB030E22BFB4
:10097000B61A754640EA5C005B084FEA3202B6EBF5
:10098000020E75EB030E22BFB61A754640EA9C00B4
:100990005B084FEA3202B6EB020E75EB030E22BF84
:1009A000B61A754640EADC0055EA060E18D04FEA42
:1009B000051545EA16754FEA06164FEAC30343EAE2
:1009C00052734FEAC2025FEA1C1CC0D111F4801FAF
:1009D0000BD141EA00014FF000004FF0004CB6E7A8
:1009E00011F4801F04BF01430020B4F1FD0C88BF47
:1009F000BCF5E06F3FF6AFAEB5EB030C04BFB6EB52
:100A0000020C5FEA500C50F1000041EB045170BD44
:100A10000EF0004E4EEA113114EB5C04C2BFD4EB71
:100A20000C0541EA045170BD41F480114FF0000EF5
:100A3000013C90E645EA060E8DE60CEA135594EA71
:100A40000C0F08BF95EA0C0F3FF43BAF94EA0C0F74
:100A50000AD150EA01347FF434AF95EA0C0F7FF4E9
:100A600025AF104619462CE795EA0C0F06D152EA3D
:100A700003353FF4FDAE1046194622E750EA410621
:100A800018BF52EA43067FF4C5AE50EA41047FF432
:100A90000DAF52EA43057FF4EBAE12E74FF0FF3C97
:100AA00006E000BF4FF0010C02E000BF4FF0010C68
:100AB0004DF804CD4FEA410C7FEA6C5C4FEA430CE1
:100AC00018BF7FEA6C5C1BD001B050EA410C0CBF30
:100AD00052EA430C91EA030F02BF90EA020F002092
:100AE000704710F1000F91EA030F58BF994208BFF9
:100AF00090422CBFD8176FEAE37040F001007047B6
:100B00004FEA410C7FEA6C5C02D150EA013C07D10C
:100B10004FEA430C7FEA6C5CD6D152EA033CD3D057
:100B20005DF8040B704700BF8446104662468C4651
:100B30001946634600E000BF01B5FFF7B7FF002884
:100B400048BF10F1000F01BD4DF808EDFFF7F4FFAD
:100B50000CBF012000205DF808FB00BF4DF808ED38
:100B6000FFF7EAFF34BF012000205DF808FB00BF5B
:100B70004DF808EDFFF7E0FF94BF012000205DF87D
:100B800008FB00BF4DF808EDFFF7CEFF94BF012032
:100B900000205DF808FB00BF4DF808EDFFF7C4FF2B
:100BA00034BF012000205DF808FB00BF4FEA410C74
:100BB0007FEA6C5C02D150EA013C0AD14FEA430C57
:100BC0007FEA6C5C02D152EA033C02D14FF0000094
:100BD00070474FF0010070474FEA410212F50012D2
:100BE00015D211D56FF47873B3EB625212D94FEA74
:100BF000C12343F0004343EA505311F0004F23FA5E
:100C000002F018BF404270474FF00000704750EAB2
:100C1000013005D111F0004008BF6FF0004070476F
:100C20004FF00000704700BF4A0011D212F50012C9
:100C300011D20DD56FF47873B3EB62520ED44FEA34
:100C4000C12343F0004343EA505323FA02F07047B4
:100C50004FF00000704750EA013002D14FF0FF30F2
:100C600070474FF00000704753B94AB9002908BFD8
:100C700000281CBF4FF0FF314FF0FF3000F0AAB941
:100C8000ADF1080C6DE904CE00F03CF8DDF804E0AD
:100C9000DDE9022304B0704738B500220023044682
:100CA0000D46FFF75BFF28B920462946BDE83840CE
:100CB00000F00AB8204605F1004100F005F8404276
:100CC00061EB410138BD00BFD0B50C4B0022064698
:100CD0000F46FFF7D1FCFFF7A7FF0446FFF752FCD2
:100CE000074B0022FFF7C8FC02460B463046394648
:100CF000FFF70AFBFFF798FF2146D0BD0000F03D4B
:100D00000000F0412DE9F047089D04468E46002B77
:100D10004DD18A42944669D9B2FA82F252B101FAAF
:100D200002F3C2F1200120FA01F10CFA02FC41EABF
:100D3000030E94404FEA1C48210CBEFBF8F61FFA44
:100D40008CF708FB16E341EA034306FB07F19942DF
:100D50000AD91CEB030306F1FF3080F01F81994292
:100D600040F21C81023E63445B1AA4B2B3FBF8F06C
:100D700008FB103344EA034400FB07F7A7420AD9F3
:100D80001CEB040400F1FF3380F00A81A74240F21B
:100D900007816444023840EA0640E41B00261DB186
:100DA000D4400023C5E900433146BDE8F0878B42BB
:100DB00009D9002D00F0EF800026C5E9000130467A
:100DC0003146BDE8F087B3FA83F6002E4AD18B4254
:100DD00002D3824200F2F980841A61EB03030120FE
:100DE0009E46002DE0D0C5E9004EDDE702B9FFDEEA
:100DF000B2FA82F2002A40F09280A1EB0C014FEA95
:100E00001C471FFA8CFE0126200CB1FBF7F307FBF1
:100E1000131140EA01410EFB03F0884208D91CEB94
:100E2000010103F1FF3802D2884200F2CB80434631
:100E3000091AA4B2B1FBF7F007FB101144EA014410
:100E40000EFB00FEA64508D91CEB040400F1FF319F
:100E500002D2A64500F2BB800846A4EB0E0440EA8D
:100E600003409CE7C6F12007B34022FA07FC4CEA96
:100E7000030C20FA07F401FA06F31C43F9404FEA89
:100E80001C4900FA06F3B1FBF9F8200C1FFA8CFE9E
:100E900009FB181140EA014108FB0EF0884202FAF2
:100EA00006F20BD91CEB010108F1FF3A80F08880B3
:100EB000884240F28580A8F102086144091AA4B270
:100EC000B1FBF9F009FB101144EA014100FB0EFEF1
:100ED0008E4508D91CEB010100F1FF346CD28E4520
:100EE0006AD90238614440EA0840A0FB0294A1EBB1
:100EF0000E01A142C846A64656D353D05DB1B3EB0E
:100F0000080261EB0E0101FA07F722FA06F3F1403D
:100F10001F43C5E9007100263146BDE8F087C2F1E4
:100F20002003D8400CFA02FC21FA03F3914001435C
:100F30004FEA1C471FFA8CFEB3FBF7F007FB103695
:100F40000B0C43EA064300FB0EF69E4204FA02F441
:100F500008D91CEB030300F1FF382FD29E422DD994
:100F6000023863449B1B89B2B3FBF7F607FB1633C9
:100F700041EA034106FB0EF38B4208D91CEB010149
:100F800006F1FF3816D28B4214D9023E6144C91AC9
:100F900046EA004638E72E46284605E70646E3E6D9
:100FA0001846F8E64B45A9D2B9EB020864EB0C0EE3
:100FB0000138A3E74646EAE7204694E74046D1E7F2
:100FC000D0467BE7023B614432E7304609E76444A0
:100FD000023842E7704700BF80B582B000AF0320FF
:100FE00000F09EF907F0FCFB0246154B9B691B0ABB
:100FF00003F00F031349CB5C03F01F0322FA03F342
:101000007B600F4B9B6903F00F030E4AD35C03F028
:101010001F037A6822FA03F30B4A13600B4A7B68BA
:1010200013600F201AF0D0FD0346002B01D00123DE
:1010300002E01AF0C7F8002318460837BD4680BD05
:1010400000440258D81A0408300100242C0100245E
:1010500080B400AF064B1B781A46064B1B6813443E
:10106000044A136000BFBD465DF8047B704700BFB3
:1010700004000024FC0E002480B400AF034B1B6866
:101080001846BD465DF8047B704700BFFC0E002487
:1010900080B584B000AF7860FFF7EEFFB8607B6882
:1010A000FB60FB68B3F1FF3F05D00A4B1B781A4683
:1010B000FB681344FB6000BFFFF7DEFF0246BB681E
:1010C000D31AFA689A42F7D800BF00BF1037BD465E
:1010D00080BD00BF0400002480B400AF054B5B68F6
:1010E000044A43F00103536000BFBD465DF8047B32
:1010F000704700BF0010005C80B400AF054B5B6818
:10110000044A43F00203536000BFBD465DF8047B10
:10111000704700BF0010005C80B400AF054B5B68F7
:10112000044A43F00403536000BFBD465DF8047BEE
:10113000704700BF0010005C80B485B000AF7860DD
:101140007B6803F00703FB600C4BDB68BB60BA688D
:101150004FF6FF031340BB60FB681A02BB681343E2
:1011600043F0BF6343F40033BB60044ABB68D36001
:1011700000BF1437BD465DF8047B704700ED00E00A
:1011800080B400AF044BDB681B0A03F0070318466A
:10119000BD465DF8047B704700ED00E080B483B08D
:1011A00000AF0346FB80B7F90630002B0BDBFB8852
:1011B00003F01F020749B7F906305B09012000FA66
:1011C00002F241F8232000BF0C37BD465DF8047BD6
:1011D000704700BF00E100E080B483B000AF034679
:1011E000FB80B7F90630002B12DBFB8803F01F02EF
:1011F0000A49B7F906305B09012000FA02F22033F0
:1012000041F82320BFF34F8F00BFBFF36F8F00BFA4
:1012100000BF0C37BD465DF8047B704700E100E07D
:1012200080B483B000AF03463960FB80B7F9063065
:10123000002B0ADB3B68DAB20C49B7F90630120121
:10124000D2B20B4483F800230AE03B68DAB20849C3
:10125000FB8803F00F03043B1201D2B20B441A7651
:1012600000BF0C37BD465DF8047B704700E100E02D
:1012700000ED00E080B489B000AFF860B9607A603A
:10128000FB6803F00703FB61FB69C3F10703042B51
:1012900028BF0423BB61FB690433062B02D9FB6919
:1012A000033B00E000237B614FF0FF32BB6902FA91
:1012B00003F3DA43BB681A407B699A404FF0FF3171
:1012C0007B6901FA03F3D9437B680B40134318464B
:1012D0002437BD465DF8047B7047000080B582B0BE
:1012E00000AF78607B68013BB3F1807F01D30123BD
:1012F0000FE00A4A7B68013B53600F214FF0FF303B
:10130000FFF78EFF054B00229A60044B07221A60FC
:10131000002318460837BD4680BD00BF10E000E03E
:1013200080B582B000AF78607868FFF705FF00BF36
:101330000837BD4680BD80B586B000AF0346B960B2
:101340007A60FB81FFF71CFF78617A68B968786979
:10135000FFF790FF0246B7F90E3011461846FFF727
:101360005FFF00BF1837BD4680BD80B582B000AFBB
:101370000346FB80B7F906301846FFF70FFF00BFA2
:101380000837BD4680BD80B582B000AF0346FB8004
:10139000B7F906301846FFF71FFF00BF0837BD46F4
:1013A00080BD80B582B000AF78607868FFF796FFA7
:1013B000034618460837BD4680BD000080B483B0A0
:1013C00000AF78607B68042B06D1094B1B68084A84
:1013D00043F00403136005E0054B1B68044A23F047
:1013E0000403136000BF0C37BD465DF8047B7047F3
:1013F00010E000E080B586B000AF7860FFF73CFEFB
:1014000038617B68002B01D101237FE37B681B6877
:10141000664A93424AD07B681B68654A934245D02E
:101420007B681B68634A934240D07B681B68624AB2
:1014300093423BD07B681B68604A934236D07B68FE
:101440001B685F4A934231D07B681B685D4A9342B8
:101450002CD07B681B685C4A934227D07B681B6852
:101460005A4A934222D07B681B68594A93421DD046
:101470007B681B68574A934218D07B681B68564AA2
:10148000934213D07B681B68544A93420ED07B680A
:101490001B68534A934209D07B681B68514A9342A8
:1014A00004D07B681B68504A934201D1012300E0BD
:1014B0000023002B00F03C817B68022283F835205A
:1014C0007B68002283F834207B681B68374A93428C
:1014D0004AD07B681B68364A934245D07B681B68BC
:1014E000344A934240D07B681B68334A93423BD0D6
:1014F0007B681B68314A934236D07B681B68304A50
:10150000934231D07B681B682E4A93422CD07B6873
:101510001B682D4A934227D07B681B682B4A934255
:1015200022D07B681B682A4A93421DD07B681B68C7
:10153000284A934218D07B681B68274A934213D0ED
:101540007B681B68254A93420ED07B681B68244A3F
:10155000934209D07B681B68224A934204D07B687F
:101560001B68214A934208D17B681B681A687B6814
:101570001B6822F001021A6007E07B681B681A688A
:101580007B681B6822F001021A602FE0FFF774FDF0
:1015900002463B69D31A052B28D97B6820225A655D
:1015A0007B68032283F835200123AFE2100002405C
:1015B00028000240400002405800024070000240F3
:1015C00088000240A0000240B8000240100402401F
:1015D00028040240400402405804024070040240C3
:1015E00088040240A0040240B80402407B681B68E3
:1015F0001B6803F00103002BC8D17B681B681B68C4
:101600007B617A69734B13407B617B689A687B6866
:10161000DB681A437B681B691A437B685B691A4362
:101620007B689B691A437B68DB691A437B681B6A8A
:1016300013437A6913437B617B685B6A042B07D190
:101640007B68DA6A7B681B6B13437A6913437B619F
:101650007B685B68282B03D97B685B682E2B1FD9BE
:101660007B685B683E2B03D97B685B68422B17D98C
:101670007B685B68462B03D97B685B68482B0FD976
:101680007B685B684E2B03D97B685B68522B07D95C
:101690007B685B68732B05D97B685B68772B01D807
:1016A000012300E00023002B03D07B6943F4801367
:1016B0007B617B681B687A691A607B681B685B6961
:1016C0007B617B6923F007037B617B685B6A7A69D6
:1016D00013437B617B685B6A042B17D17B689B6A31
:1016E0007A6913437B617B68DB6A002B0ED07868D4
:1016F00002F0E2FB0346002B08D07B6840225A65CB
:101700007B68012283F835200123FFE17B681B6899
:101710007A695A61786802F01DFB0346BB607B68FA
:10172000DB6D03F01F033F229A40BB689A6001E122
:101730007B681B68284A93424AD07B681B68274A0B
:10174000934245D07B681B68254A934240D07B6812
:101750001B68244A93423BD07B681B68224A934211
:1017600036D07B681B68214A934231D07B681B6866
:101770001F4A93422CD07B681B681E4A934227D095
:101780007B681B681C4A934222D07B681B681B4AFB
:1017900093421DD07B681B68194A934218D07B681E
:1017A0001B68184A934213D07B681B68164A934201
:1017B0000ED07B681B68154A934209D07B681B6872
:1017C000134A934204D07B681B68124A934223D188
:1017D000012322E03F8010FE082C02481C2C024806
:1017E000302C0248442C0248582C02486C2C0248E9
:1017F000802C0248942C0248085402581C54025869
:101800003054025844540258585402586C540258E8
:1018100080540258945402580023002B00F0818019
:101820007B681B68804A934221D07B681B687F4A93
:1018300093421CD07B681B687D4A934217D07B681B
:101840001B687C4A934212D07B681B687A4A934299
:101850000DD07B681B68794A934208D07B681B686F
:10186000774A934203D07B681B68764A934200BF55
:101870007B68022283F835207B68002283F83420BD
:101880007B681B681B687B617B6923F4FF3323F44F
:10189000F8737B617B689B68402B08D07B689B68F2
:1018A000802B02D14FF4804302E0002300E010239C
:1018B0007A68D268D2081A437B681B69DB081A432E
:1018C0007B685B69DB081A437B689B69DB081A430A
:1018D0007B68DB69DB081A437B681B6A1B091343BF
:1018E0007A6913437B617B681B687A691A607B683D
:1018F0001B681A46544B1344544AA2FB03231B098A
:101900009A007B68DA65786802F024FA0346FB6087
:101910007B68DB6D03F01F0301229A40FB685A606D
:1019200008E07B6840225A657B68032283F83520F3
:101930000123EBE07B681B68454A934272D07B68C9
:101940001B68444A93426DD07B681B68424A9342AD
:1019500068D07B681B68414A934263D07B681B68F0
:101960003F4A93425ED07B681B683E4A934259D0FF
:101970007B681B683C4A934254D07B681B683B4A97
:1019800093424FD07B681B68394A93424AD07B68A8
:101990001B68384A934245D07B681B68364A93429D
:1019A00040D07B681B68354A93423BD07B681B68FC
:1019B000334A934236D07B681B68324A934231D017
:1019C0007B681B68304A93422CD07B681B682F4A87
:1019D000934227D07B681B68134A934222D07B68CE
:1019E0001B68124A93421DD07B681B68104A9342C1
:1019F00018D07B681B680F4A934213D07B681B6822
:101A00000D4A93420ED07B681B680C4A934209D062
:101A10007B681B680A4A934204D07B681B68094AAA
:101A2000934235D1012334E0085402581C54025823
:101A30003054025844540258585402586C540258B6
:101A40008054025894540258F8ABFDA7CDCCCCCCAE
:101A500010000240280002404000024058000240AE
:101A60007000024088000240A0000240B80002401E
:101A7000100402402804024040040240580402407E
:101A80007004024088040240A0040240B8040240EE
:101A90000023002B32D0786802F08AFA7B689B68BA
:101AA000802B02D17B6800225A607B685A687B6871
:101AB0001B6ED2B21A607B685B6E7A68926E5A6057
:101AC0007B685B68002B10D07B685B68082B0CD8A8
:101AD000786802F007FB7B68DB6E00221A607B6887
:101AE0001B6F7A68526F5A6008E07B680022DA66E2
:101AF0007B6800221A677B6800225A677B68002295
:101B00005A657B68012283F8352000231846183770
:101B1000BD4680BD80B586B000AFF860B9607A6020
:101B20003B600023FB75FB68002B01D1012326E2FB
:101B3000FB6893F83430012B01D102231FE2FB68CC
:101B4000012283F83420FB6893F83530DBB2012B97
:101B500040F00A82FB68022283F83520FB680022ED
:101B60005A65FB681B68684A93424AD0FB681B6849
:101B7000664A934245D0FB681B68654A934240D051
:101B8000FB681B68634A93423BD0FB681B68624A50
:101B9000934236D0FB681B68604A934231D0FB68A1
:101BA0001B685F4A93422CD0FB681B685D4A9342D6
:101BB00027D0FB681B685C4A934222D0FB681B68F5
:101BC0005A4A93421DD0FB681B68594A934218D069
:101BD000FB681B68574A934213D0FB681B68564A40
:101BE00093420ED0FB681B68544A934209D0FB68AD
:101BF0001B68534A934204D0FB681B68514A9342C6
:101C000008D1FB681B681A68FB681B6822F0010298
:101C10001A6007E0FB681B681A68FB681B6822F003
:101C200001021A603B687A68B968F86801F0AEFE94
:101C3000FB681B68344A93424AD0FB681B68334AEE
:101C4000934245D0FB681B68314A934240D0FB6801
:101C50001B68304A93423BD0FB681B682E4A934274
:101C600036D0FB681B682D4A934231D0FB681B6855
:101C70002B4A93422CD0FB681B682A4A934227D0F8
:101C8000FB681B68284A934222D0FB681B68274ADE
:101C900093421DD0FB681B68254A934218D0FB680D
:101CA0001B68244A934213D0FB681B68224A934264
:101CB0000ED0FB681B68214A934209D0FB681B6861
:101CC0001F4A934204D0FB681B681E4A934201D10D
:101CD000012300E00023002B36D0FB681B681B6843
:101CE00023F01E02FB681B6842F016021A60FB68B4
:101CF0001B6C002B3ED0FB681B681A68FB681B68D6
:101D000042F008021A6035E010000240280002404C
:101D1000400002405800024070000240880002402B
:101D2000A0000240B8000240100402402804024013
:101D300040040240580402407004024088040240FB
:101D4000A0040240B8040240FB681B681B6823F033
:101D50000E02FB681B6842F00A021A60FB681B6CEB
:101D6000002B07D0FB681B681A68FB681B6842F0F1
:101D700004021A60FB681B68834A934272D0FB68B6
:101D80001B68824A93426DD0FB681B68804A93426D
:101D900068D0FB681B687F4A934263D0FB681B686E
:101DA0007D4A93425ED0FB681B687C4A934259D0BF
:101DB000FB681B687A4A934254D0FB681B68794AD7
:101DC00093424FD0FB681B68774A93424AD0FB6826
:101DD0001B68764A934245D0FB681B68744A93425D
:101DE00040D0FB681B68734A93423BD0FB681B687A
:101DF000714A934236D0FB681B68704A934231D0D7
:101E0000FB681B686E4A93422CD0FB681B686D4AC6
:101E1000934227D0FB681B686B4A934222D0FB6831
:101E20001B686A4A93421DD0FB681B68684A93424C
:101E300018D0FB681B68674A934213D0FB681B6885
:101E4000654A93420ED0FB681B68644A934209D0EE
:101E5000FB681B68624A934204D0FB681B68614AB6
:101E6000934201D1012300E00023002B1AD0FB682C
:101E70001B6E1B6803F48033002B07D0FB681B6EBE
:101E80001A68FB681B6E42F480721A60FB68DB6E96
:101E9000002B07D0FB68DB6E1A68FB68DB6E42F430
:101EA00080721A60FB681B68374A93424AD0FB680D
:101EB0001B68364A934245D0FB681B68344A9342FC
:101EC00040D0FB681B68334A93423BD0FB681B68D9
:101ED000314A934236D0FB681B68304A934231D076
:101EE000FB681B682E4A93422CD0FB681B682D4A66
:101EF000934227D0FB681B682B4A934222D0FB6891
:101F00001B682A4A93421DD0FB681B68284A9342EB
:101F100018D0FB681B68274A934213D0FB681B68E4
:101F2000254A93420ED0FB681B68244A934209D08D
:101F3000FB681B68224A934204D0FB681B68214A55
:101F4000934208D1FB681B681A68FB681B6842F063
:101F500001021A6012E0FB681B681A68FB681B68C4
:101F600042F001021A6009E0FB684FF400625A6512
:101F7000FB68002283F834200123FB75FB7D1846A3
:101F80001837BD4680BD00BF100002402800024047
:101F900040000240580002407000024088000240A9
:101FA000A0000240B8000240100402402804024091
:101FB0004004024058040240700402408804024079
:101FC000A0040240B8040240085402581C540258AD
:101FD0003054025844540258585402586C54025811
:101FE000805402589454025880B586B000AF78608F
:101FF000FFF742F838617B68002B01D10123DCE256
:102000007B6893F83530DBB2022B08D07B688022E6
:102010005A657B68002283F834200123CDE27B6877
:102020001B68764A93424AD07B681B68744A934285
:1020300045D07B681B68734A934240D07B681B681D
:10204000714A93423BD07B681B68704A934236D0FA
:102050007B681B686E4A934231D07B681B686D4A6F
:1020600093422CD07B681B686B4A934227D07B68D5
:102070001B686A4A934222D07B681B68684A934275
:102080001DD07B681B68674A934218D07B681B6829
:10209000654A934213D07B681B68644A93420ED012
:1020A0007B681B68624A934209D07B681B68614A5F
:1020B000934204D07B681B685F4A934201D101239D
:1020C00000E00023002B13D07B681B681A687B6834
:1020D0001B6822F01E021A607B681B685A697B68C5
:1020E0001B6822F080025A617B681B687B610AE0F2
:1020F0007B681B681A687B681B6822F00E021A60F6
:102100007B681B687B617B681B683C4A934272D08A
:102110007B681B683A4A93426DD07B681B68394ADA
:10212000934268D07B681B68374A934263D07B68D0
:102130001B68364A93425ED07B681B68344A9342E0
:1021400059D07B681B68334A934254D07B681B6824
:10215000314A93424FD07B681B68304A93424AD041
:102160007B681B682E4A934245D07B681B682D4ACA
:10217000934240D07B681B682B4A93423BD07B68DC
:102180001B682A4A934236D07B681B68284A9342D0
:1021900031D07B681B68274A93422CD07B681B6830
:1021A000254A934227D07B681B68244A934222D059
:1021B0007B681B68224A93421DD07B681B68214ABA
:1021C000934218D07B681B681F4A934213D07B68E8
:1021D0001B681E4A93420ED07B681B681C4A9342C0
:1021E00009D07B681B681B4A934204D07B681B683C
:1021F000194A934232D1012331E000BF100002405E
:102200002800024040000240580002407000024096
:1022100088000240A0000240B800024010040240C2
:102220002804024040040240580402407004024066
:1022300088040240A0040240B80402400854025836
:102240001C540258305402584454025858540258EE
:102250006C54025880540258945402580023002BA6
:1022600007D07B681B6E1A687B681B6E22F4807235
:102270001A607B681B686D4A93424AD07B681B6872
:102280006B4A934245D07B681B686A4A934240D0B0
:102290007B681B68684A93423BD07B681B68674A2F
:1022A000934236D07B681B68654A934231D07B6885
:1022B0001B68644A93422CD07B681B68624A934235
:1022C00027D07B681B68614A934222D07B681B68D9
:1022D0005F4A93421DD07B681B685E4A934218D0C8
:1022E0007B681B685C4A934213D07B681B685B4A1F
:1022F00093420ED07B681B68594A934209D07B6891
:102300001B68584A934204D07B681B68564A934224
:1023100008D17B681B681A687B681B6822F0010281
:102320001A6007E07B681B681A687B681B6822F0EC
:1023300001021A6013E0FEF79FFE02463B69D31AC2
:10234000052B0CD97B6820225A657B68032283F811
:1023500035207B68002283F8342001232DE17B693E
:102360001B6803F00103002BE5D17B681B682F4A33
:1023700093424AD07B681B682D4A934245D07B68C4
:102380001B682C4A934240D07B681B682A4A9342C0
:102390003BD07B681B68294A934236D07B681B6818
:1023A000274A934231D07B681B68264A93422CD03F
:1023B0007B681B68244A934227D07B681B68234AAA
:1023C000934222D07B681B68214A93421DD07B68D0
:1023D0001B68204A934218D07B681B681E4A9342B0
:1023E00013D07B681B681D4A93420ED07B681B6824
:1023F0001B4A934209D07B681B681A4A934204D057
:102400007B681B68184A934201D1012300E0002336
:10241000002B2BD07B689B6DBB607B68DB6D03F072
:102420001F033F229A40BB689A602AE010000240D6
:102430002800024040000240580002407000024064
:1024400088000240A0000240B80002401004024090
:102450002804024040040240580402407004024034
:1024600088040240A0040240B80402407B689B6DCF
:10247000FB607B68DB6D03F01F0301229A40FB6861
:102480005A607B681B684F4A934272D07B681B6816
:102490004D4A93426DD07B681B684C4A934268D08A
:1024A0007B681B684A4A934263D07B681B68494A31
:1024B00093425ED07B681B68474A934259D07B6841
:1024C0001B68464A934254D07B681B68444A934237
:1024D0004FD07B681B68434A93424AD07B681B6895
:1024E000414A934245D07B681B68404A934240D0A2
:1024F0007B681B683E4A93423BD07B681B683D4A21
:10250000934236D07B681B683B4A934231D07B684C
:102510001B683A4A93422CD07B681B68384A934226
:1025200027D07B681B68374A934222D07B681B68A0
:10253000354A93421DD07B681B68344A934218D0B9
:102540007B681B68324A934213D07B681B68314A10
:1025500093420ED07B681B682F4A934209D07B6858
:102560001B682E4A934204D07B681B682C4A934216
:1025700001D1012300E00023002B15D07B685B6EA6
:102580007A68926E5A607B68DB6E002B0CD07B6899
:10259000DB6E1A687B68DB6E22F480721A607B68DF
:1025A0001B6F7A68526F5A607B68012283F835206E
:1025B0007B68002283F83420002318461837BD4674
:1025C00080BD00BF100002402800024040000240D1
:1025D000580002407000024088000240A000024003
:1025E000B8000240100402402804024040040240A7
:1025F000580402407004024088040240A0040240D3
:10260000B8040240085402581C540258305402586E
:1026100044540258585402586C540258805402587A
:102620009454025880B584B000AF78607B68002B6A
:1026300001D1012337E27B6893F83530DBB2022BFE
:1026400004D07B6880225A6501232CE27B681B68DA
:102650005C4A93424AD07B681B685B4A934245D0F0
:102660007B681B68594A934240D07B681B68584A74
:1026700093423BD07B681B68564A934236D07B68B6
:102680001B68554A934231D07B681B68534A93427A
:102690002CD07B681B68524A934227D07B681B680A
:1026A000504A934222D07B681B684F4A93421DD008
:1026B0007B681B684D4A934218D07B681B684C4A64
:1026C000934213D07B681B684A4A93420ED07B68C2
:1026D0001B68494A934209D07B681B68474A93426A
:1026E00004D07B681B68464A934201D1012300E075
:1026F0000023002B00F086807B68042283F83520BD
:102700007B681B682F4A93424AD07B681B682E4A1D
:10271000934245D07B681B682C4A934240D07B682B
:102720001B682B4A93423BD07B681B68294A934223
:1027300036D07B681B68284A934231D07B681B687F
:10274000264A93422CD07B681B68254A934227D0A7
:102750007B681B68234A934222D07B681B68224A0D
:1027600093421DD07B681B68204A934218D07B6837
:102770001B681F4A934213D07B681B681D4A934213
:102780000ED07B681B681C4A934209D07B681B688B
:102790001A4A934204D07B681B68194A934208D1B5
:1027A0007B681B681A687B681B6822F001021A604C
:1027B00078E17B681B681A687B681B6822F001025D
:1027C0001A606FE110000240280002404000024001
:1027D000580002407000024088000240A000024001
:1027E000B8000240100402402804024040040240A5
:1027F000580402407004024088040240A0040240D1
:10280000B80402407B681B681A687B681B6822F06A
:102810000E021A607B681B686C4A93424AD07B6840
:102820001B686B4A934245D07B681B68694A934298
:1028300040D07B681B68684A93423BD07B681B682A
:10284000664A934236D07B681B68654A934231D012
:102850007B681B68634A93422CD07B681B68624A82
:10286000934227D07B681B68604A934222D07B68E2
:102870001B685F4A93421DD07B681B685D4A934288
:1028800018D07B681B685C4A934213D07B681B6836
:102890005A4A93420ED07B681B68594A934209D02A
:1028A0007B681B68574A934204D07B681B68564A72
:1028B000934208D17B681B681A687B681B6822F00A
:1028C00001021A6007E07B681B681A687B681B6856
:1028D00022F001021A607B681B683C4A934272D066
:1028E0007B681B683A4A93426DD07B681B68394A03
:1028F000934268D07B681B68374A934263D07B68F9
:102900001B68364A93425ED07B681B68344A934208
:1029100059D07B681B68334A934254D07B681B684C
:10292000314A93424FD07B681B68304A93424AD069
:102930007B681B682E4A934245D07B681B682D4AF2
:10294000934240D07B681B682B4A93423BD07B6804
:102950001B682A4A934236D07B681B68284A9342F8
:1029600031D07B681B68274A93422CD07B681B6858
:10297000254A934227D07B681B68244A934222D081
:102980007B681B68224A93421DD07B681B68214AE2
:10299000934218D07B681B681F4A934213D07B6810
:1029A0001B681E4A93420ED07B681B681C4A9342E8
:1029B00009D07B681B681B4A934204D07B681B6864
:1029C000194A934232D1012331E000BF1000024086
:1029D00028000240400002405800024070000240BF
:1029E00088000240A0000240B800024010040240EB
:1029F000280402404004024058040240700402408F
:102A000088040240A0040240B8040240085402585E
:102A10001C54025830540258445402585854025816
:102A20006C54025880540258945402580023002BCE
:102A300028D07B681B6E1A687B681B6E22F480723C
:102A40001A607B689B6DFB607B68DB6D03F01F0386
:102A500001229A40FB685A607B685B6E7A68926ECE
:102A60005A607B68DB6E002B0CD07B68DB6E1A68CB
:102A70007B68DB6E22F480721A607B681B6F7A6859
:102A8000526F5A607B68012283F835207B680022F0
:102A900083F834207B681B6D002B03D07B681B6D93
:102AA00078689847002318461037BD4680BD00BFA0
:102AB00080B58AB000AF78600023FB60674B1B686D
:102AC000674AA2FB03239B0A7B627B689B6D3B6288
:102AD0007B689B6DFB613B6A1B68BB61FB691B6884
:102AE0007B617B681B685F4A93424AD07B681B68A6
:102AF0005D4A934245D07B681B685C4A934240D054
:102B00007B681B685A4A93423BD07B681B68594AD2
:102B1000934236D07B681B68574A934231D07B681A
:102B20001B68564A93422CD07B681B68544A9342D8
:102B300027D07B681B68534A934222D07B681B686E
:102B4000514A93421DD07B681B68504A934218D06B
:102B50007B681B684E4A934213D07B681B684D4AC2
:102B600093420ED07B681B684B4A934209D07B6826
:102B70001B684A4A934204D07B681B68484A9342C8
:102B800001D1012300E00023002B00F02B847B689F
:102B9000DB6D03F01F0308229A40BB691340002B32
:102BA00000F0A2807B681B682E4A93424AD07B6863
:102BB0001B682D4A934245D07B681B682B4A934281
:102BC00040D07B681B682A4A93423BD07B681B68D5
:102BD000284A934236D07B681B68274A934231D0FB
:102BE0007B681B68254A93422CD07B681B68244A6B
:102BF000934227D07B681B68224A934222D07B688D
:102C00001B68214A93421DD07B681B681F4A934270
:102C100018D07B681B681E4A934213D07B681B68E0
:102C20001C4A93420ED07B681B681B4A934209D012
:102C30007B681B68194A934204D07B681B68184A5A
:102C400093422FD17B681B681B6803F00403002BA1
:102C500014BF01230023DBB22EE000BF2C010024AF
:102C6000B5814E1B10000240280002404000024087
:102C7000580002407000024088000240A00002405C
:102C8000B800024010040240280402404004024000
:102C9000580402407004024088040240A00402402C
:102CA000B80402407B681B681B6803F00803002B14
:102CB00014BF01230023DBB2002B15D07B681B68F7
:102CC0001A687B681B6822F004021A607B68DB6D5F
:102CD00003F01F0308229A403B6A9A607B685B6D91
:102CE00043F001027B685A657B68DB6D03F01F03CC
:102CF000BA6922FA03F303F00103002B6ED07B685C
:102D00001B68694A93424AD07B681B68674A9342B2
:102D100045D07B681B68664A934240D07B681B683D
:102D2000644A93423BD07B681B68634A934236D027
:102D30007B681B68614A934231D07B681B68604A9C
:102D400093422CD07B681B685E4A934227D07B68F5
:102D50001B685D4A934222D07B681B685B4A9342A2
:102D60001DD07B681B685A4A934218D07B681B6849
:102D7000584A934213D07B681B68574A93420ED03F
:102D80007B681B68554A934209D07B681B68544A8C
:102D9000934204D07B681B68524A93420AD17B68F5
:102DA0001B685B6903F08003002B14BF0123002321
:102DB000DBB203E07B681B681B680023002B0DD08F
:102DC0007B68DB6D03F01F0301229A403B6A9A6027
:102DD0007B685B6D43F002027B685A657B68DB6D44
:102DE00003F01F0304229A40BB691340002B00F03C
:102DF0008F807B681B682C4A93424AD07B681B6893
:102E00002A4A934245D07B681B68294A934240D0A6
:102E10007B681B68274A93423BD07B681B68264A25
:102E2000934236D07B681B68244A934231D07B683A
:102E30001B68234A93422CD07B681B68214A93422B
:102E400027D07B681B68204A934222D07B681B688E
:102E50001E4A93421DD07B681B681D4A934218D0BE
:102E60007B681B681B4A934213D07B681B681A4A15
:102E700093420ED07B681B68184A934209D07B6846
:102E80001B68174A934204D07B681B68154A93421B
:102E90002AD17B681B681B6803F00203002B14BF58
:102EA00001230023DBB223E010000240280002408F
:102EB000400002405800024070000240880002407A
:102EC000A0000240B8000240100402402804024062
:102ED000400402405804024070040240880402404A
:102EE000A0040240B80402407B681B681B680023F2
:102EF000002B0DD07B68DB6D03F01F0304229A408A
:102F00003B6A9A607B685B6D43F004027B685A659C
:102F10007B68DB6D03F01F0310229A40BB691340EE
:102F2000002B00F0A6807B681B68854A93424AD03C
:102F30007B681B68834A934245D07B681B68824A42
:102F4000934240D07B681B68804A93423BD07B68A9
:102F50001B687F4A934236D07B681B687D4A934248
:102F600031D07B681B687C4A93422CD07B681B68FD
:102F70007A4A934227D07B681B68794A934222D0D1
:102F80007B681B68774A93421DD07B681B68764A32
:102F9000934218D07B681B68744A934213D07B68B5
:102FA0001B68734A93420ED07B681B68714A934238
:102FB00009D07B681B68704A934204D07B681B6809
:102FC0006E4A93420AD17B681B681B6803F00803B2
:102FD000002B14BF01230023DBB209E07B681B68D0
:102FE0001B6803F00403002B14BF01230023DBB292
:102FF000002B3ED07B68DB6D03F01F0310229A404C
:103000003B6A9A607B681B681B6803F48023002B73
:1030100018D07B681B681B6803F40023002B08D1C1
:103020007B681B6C002B24D07B681B6C78689847EE
:103030001FE07B689B6C002B1BD07B689B6C7868C7
:10304000984716E07B681B681B6803F48073002BAD
:1030500007D17B681B681A687B681B6822F008022E
:103060001A607B681B6C002B03D07B681B6C786834
:1030700098477B68DB6D03F01F0320229A40BB69F1
:103080001340002B00F010817B681B682C4A934290
:103090004AD07B681B682B4A934245D07B681B68EB
:1030A000294A934240D07B681B68284A93423BD010
:1030B0007B681B68264A934236D07B681B68254A8A
:1030C000934231D07B681B68234A93422CD07B68A3
:1030D0001B68224A934227D07B681B68204A934290
:1030E00022D07B681B681F4A93421DD07B681B68F7
:1030F0001D4A934218D07B681B681C4A934213D028
:103100007B681B681A4A93420ED07B681B68194A79
:10311000934209D07B681B68174A934204D07B68AE
:103120001B68164A93422BD17B681B681B6803F00F
:103130001003002B14BF01230023DBB22AE000BFE1
:1031400010000240280002404000024058000240A7
:103150007000024088000240A0000240B800024017
:103160001004024028040240400402405804024077
:103170007004024088040240A0040240B8040240E7
:103180007B681B681B6803F00203002B14BF01233C
:103190000023DBB2002B00F087807B68DB6D03F03F
:1031A0001F0320229A403B6A9A607B6893F835306F
:1031B000DBB2042B39D17B681B681A687B681B68FB
:1031C00022F016021A607B681B685A697B681B68CC
:1031D00022F080025A617B681B6C002B03D17B6854
:1031E0009B6C002B07D07B681B681A687B681B6888
:1031F00022F008021A607B68DB6D03F01F033F2298
:103200009A403B6A9A607B68012283F835207B688C
:10321000002283F834207B681B6D002B00F0828332
:103220007B681B6D786898477CE37B681B681B682C
:1032300003F48023002B18D07B681B681B6803F401
:103240000023002B08D17B685B6C002B2CD07B68A3
:103250005B6C7868984727E07B68DB6B002B23D09A
:103260007B68DB6B786898471EE07B681B681B688F
:1032700003F48073002B0FD17B681B681A687B688E
:103280001B6822F010021A607B68012283F8352047
:103290007B68002283F834207B68DB6B002B03D033
:1032A0007B68DB6B786898477B685B6D002B00F070
:1032B0003E837B685B6D03F00103002B00F0888088
:1032C0007B68042283F835207B681B68894A934217
:1032D0004AD07B681B68884A934245D07B681B684C
:1032E000864A934240D07B681B68854A93423BD014
:1032F0007B681B68834A934236D07B681B68824A8E
:10330000934231D07B681B68804A93422CD07B6803
:103310001B687F4A934227D07B681B687D4A934293
:1033200022D07B681B687C4A93421DD07B681B6857
:103330007A4A934218D07B681B68794A934213D02B
:103340007B681B68774A93420ED07B681B68764A7D
:10335000934209D07B681B68744A934204D07B680F
:103360001B68734A934208D17B681B681A687B68A4
:103370001B6822F001021A6007E07B681B681A686C
:103380007B681B6822F001021A60FB680133FB6056
:103390007A6A9A4207D37B681B681B6803F00103B3
:1033A000002BF2D100E000BF7B681B681B6803F0B4
:1033B0000103002B04D07B68032283F8352003E04F
:1033C0007B68012283F835207B68002283F8342053
:1033D0007B68DB6C002B00F0AA827B68DB6C786872
:1033E0009847A4E27B681B68524A93424AD07B68A4
:1033F0001B68514A934245D07B681B684F4A9342F1
:1034000040D07B681B684E4A93423BD07B681B6868
:103410004C4A934236D07B681B684B4A934231D06A
:103420007B681B68494A93422CD07B681B68484ADA
:10343000934227D07B681B68464A934222D07B6820
:103440001B68454A93421DD07B681B68434A9342E0
:1034500018D07B681B68424A934213D07B681B6874
:10346000404A93420ED07B681B683F4A934209D082
:103470007B681B683D4A934204D07B681B683C4ACA
:10348000934201D1012300E00023002B00F04F8282
:103490007B681B681B683B617B68DB6D03F01F0367
:1034A00004229A407B691340002B00F0DD803B69C9
:1034B00003F00403002B00F0D7807B68DB6D03F082
:1034C0001F0304229A40FB695A603B6903F40043DE
:1034D000002B59D03B6903F48033002B4AD17B6821
:1034E0009B6C002B00F020827B689B6C786898476F
:1034F0001AE200BF100002402800024040000240D3
:10350000580002407000024088000240A0000240C3
:10351000B800024010040240280402404004024067
:10352000580402407004024088040240A004024093
:10353000B8040240082C02481C2C0248302C0248D7
:10354000442C0248582C02486C2C0248802C02481B
:10355000942C0248085402581C5402583054025803
:1035600044540258585402586C540258805402581B
:10357000945402587B681B6C002B00F0D5817B684B
:103580001B6C78689847CFE13B6903F02003002B60
:1035900060D17B681B687F4A93424AD07B681B6876
:1035A0007D4A934245D07B681B687C4A934240D059
:1035B0007B681B687A4A93423BD07B681B68794AD8
:1035C000934236D07B681B68774A934231D07B6840
:1035D0001B68764A93422CD07B681B68744A9342DE
:1035E00027D07B681B68734A934222D07B681B6894
:1035F000714A93421DD07B681B68704A934218D071
:103600007B681B686E4A934213D07B681B686D4AC7
:1036100093420ED07B681B686B4A934209D07B684B
:103620001B686A4A934204D07B681B68684A9342CD
:1036300008D17B681B681A687B681B6822F0080247
:103640001A6007E07B681B681A687B681B6822F0B9
:1036500004021A607B681B6C002B00F065817B689C
:103660001B6C786898475FE17B68DB6D03F01F0394
:1036700002229A407B691340002B00F0C5803B6911
:1036800003F00203002B00F0BF807B68DB6D03F0CA
:103690001F0302229A40FB695A603B6903F400430E
:1036A000002B18D03B6903F48033002B09D17B68D1
:1036B0005B6C002B00F03A817B685B6C7868984704
:1036C00034E17B68DB6B002B00F030817B68DB6BC7
:1036D000786898472AE13B6903F02003002B40F00B
:1036E00089807B681B682B4A93424AD07B681B68A1
:1036F000294A934245D07B681B68284A934240D0B0
:103700007B681B68264A93423BD07B681B68254A2E
:10371000934236D07B681B68234A934231D07B6842
:103720001B68224A93422CD07B681B68204A934234
:1037300027D07B681B681F4A934222D07B681B6896
:103740001D4A93421DD07B681B681C4A934218D0C7
:103750007B681B681A4A934213D07B681B68194A1E
:1037600093420ED07B681B68174A934209D07B684E
:103770001B68164A934204D07B681B68144A934224
:1037800028D17B681B681A687B681B6822F01402CA
:103790001A6027E01000024028000240400002406A
:1037A000580002407000024088000240A000024021
:1037B000B8000240100402402804024040040240C5
:1037C000580402407004024088040240A0040240F1
:1037D000B80402407B681B681A687B681B6822F08B
:1037E0000A021A607B68012283F835207B68002278
:1037F00083F834207B68DB6B002B00F097807B68BC
:10380000DB6B7868984791E07B68DB6D03F01F0302
:1038100008229A407B691340002B00F088803B69A6
:1038200003F00803002B00F082807B681B68414A8C
:1038300093424AD07B681B683F4A934245D07B68DD
:103840001B683E4A934240D07B681B683C4A9342C7
:103850003BD07B681B683B4A934236D07B681B6831
:10386000394A934231D07B681B68384A93422CD046
:103870007B681B68364A934227D07B681B68354AB1
:10388000934222D07B681B68334A93421DD07B68E9
:103890001B68324A934218D07B681B68304A9342B7
:1038A00013D07B681B682F4A93420ED07B681B683D
:1038B0002D4A934209D07B681B682C4A934204D05E
:1038C0007B681B682A4A934208D17B681B681A6888
:1038D0007B681B6822F01C021A6007E07B681B688B
:1038E0001A687B681B6822F00E021A607B68DB6D29
:1038F00003F01F0301229A40FB695A607B68012292
:103900005A657B68012283F835207B68002283F8A2
:1039100034207B68DB6C002B09D07B68DB6C78681B
:10392000984704E000BF02E000BF00E000BF283776
:10393000BD4680BD10000240280002404000024009
:10394000580002407000024088000240A00002407F
:10395000B800024010040240280402404004024023
:10396000580402407004024088040240A00402404F
:10397000B804024080B483B000AF78607B685B6DB0
:1039800018460C37BD465DF8047B704780B487B09D
:1039900000AFF860B9607A603B60FB689B6D7B614B
:1039A000FB689B6D3B61FB681B687F4A934272D04A
:1039B000FB681B687D4A93426DD0FB681B687C4A9C
:1039C000934268D0FB681B687A4A934263D0FB68D5
:1039D0001B68794A93425ED0FB681B68774A934222
:1039E00059D0FB681B68764A934254D0FB681B6829
:1039F000744A93424FD0FB681B68734A93424AD083
:103A0000FB681B68714A934245D0FB681B68704A8B
:103A1000934240D0FB681B686E4A93423BD0FB68E0
:103A20001B686D4A934236D0FB681B686B4A934211
:103A300031D0FB681B686A4A93422CD0FB681B6834
:103A4000684A934227D0FB681B68674A934222D09A
:103A5000FB681B68654A93421DD0FB681B68644A7B
:103A6000934218D0FB681B68624A934213D0FB68EC
:103A70001B68614A93420ED0FB681B685F4A934201
:103A800009D0FB681B685E4A934204D0FB681B6840
:103A90005C4A934201D1012300E00023002B0DD0AA
:103AA000FB685B6EFA68926E5A60FB68DB6E002BF7
:103AB00004D0FB681B6FFA68526F5A60FB681B6882
:103AC000394A93424AD0FB681B68384A934245D032
:103AD000FB681B68364A934240D0FB681B68354A36
:103AE00093423BD0FB681B68334A934236D0FB6855
:103AF0001B68324A934231D0FB681B68304A9342BC
:103B00002CD0FB681B682F4A934227D0FB681B68A8
:103B10002D4A934222D0FB681B682C4A93421DD049
:103B2000FB681B682A4A934218D0FB681B68294A25
:103B3000934213D0FB681B68274A93420ED0FB6860
:103B40001B68264A934209D0FB681B68244A9342AB
:103B500004D0FB681B68234A934201D1012300E093
:103B60000023002B59D0FB68DB6D03F01F033F22BD
:103B70009A407B699A60FB681B681A68FB681B683F
:103B800022F480221A60FB681B683A685A60FB685E
:103B90009B68402B38D1FB681B687A689A60FB6889
:103BA0001B68BA68DA60AEE01000024028000240EC
:103BB000400002405800024070000240880002406D
:103BC000A0000240B8000240100402402804024055
:103BD000400402405804024070040240880402403D
:103BE000A0040240B8040240085402581C54025871
:103BF0003054025844540258585402586C540258D5
:103C00008054025894540258FB681B68BA689A6042
:103C1000FB681B687A68DA6075E0FB681B683D4AE0
:103C200093424AD0FB681B683B4A934245D0FB68ED
:103C30001B683A4A934240D0FB681B68384A93425B
:103C40003BD0FB681B68374A934236D0FB681B6841
:103C5000354A934231D0FB681B68344A93422CD0DA
:103C6000FB681B68324A934227D0FB681B68314AC5
:103C7000934222D0FB681B682F4A93421DD0FB68F9
:103C80001B682E4A934218D0FB681B682C4A93424B
:103C900013D0FB681B682B4A93420ED0FB681B684D
:103CA000294A934209D0FB681B68284A934204D0F2
:103CB000FB681B68264A934201D1012300E00023E0
:103CC000002B20D0FB68DB6D03F01F0301229A401C
:103CD0003B695A60FB681B683A685A60FB689B68DE
:103CE000402B08D1FB681B687A689A60FB681B68E8
:103CF000BA68DA6007E0FB681B68BA689A60FB681C
:103D00001B687A68DA6000BF1C37BD465DF8047B2B
:103D1000704700BF082C02481C2C0248302C024877
:103D2000442C0248582C02486C2C0248802C024833
:103D3000942C0248085402581C540258305402581B
:103D400044540258585402586C5402588054025833
:103D50009454025880B485B000AF78607B681B68CB
:103D6000434A93424AD07B681B68424A934245D0FB
:103D70007B681B68404A934240D07B681B683F4A7F
:103D800093423BD07B681B683D4A934236D07B68A8
:103D90001B683C4A934231D07B681B683A4A934285
:103DA0002CD07B681B68394A934227D07B681B68FC
:103DB000374A934222D07B681B68364A93421DD013
:103DC0007B681B68344A934218D07B681B68334A6F
:103DD000934213D07B681B68314A93420ED07B68B4
:103DE0001B68304A934209D07B681B682E4A934275
:103DF00004D07B681B682D4A934201D1012300E067
:103E00000023002B26D07B681B68DBB2103B284ABE
:103E1000A2FB03231B09FB60FB6803F00703254A91
:103E2000D35C1A467B68DA65FB68032B09D97B688B
:103E30001B6823F47F7323F003031A1D7B689A65C4
:103E40000EE07B681B6823F47F7323F003037A681A
:103E5000936505E07B681B6823F0FF027B689A6529
:103E60007B689B6D18461437BD465DF8047B704730
:103E7000100002402800024040000240580002406A
:103E80007000024088000240A0000240B8000240DA
:103E9000100402402804024040040240580402403A
:103EA0007004024088040240A0040240B8040240AA
:103EB000ABAAAAAAA41A040880B485B000AF78609F
:103EC0000023FB737B689B69002B20D17B689B6A76
:103ED000032B58D801A252F823F000BFED3E010891
:103EE000FF3E0108ED3E0108873F01087B68DB6A61
:103EF00003F08073002B48D00123FB7345E07B68FF
:103F0000DB6AB3F1C07F42D10123FB733FE07B68E2
:103F10009B69B3F5005F23D17B689B6A032B38D87C
:103F200001A252F823F000BF393F01083F3F0108CA
:103F3000393F0108513F01080123FB7330E07B68E2
:103F4000DB6A03F08073002B25D00123FB7322E092
:103F50007B68DB6AB3F1C07F1FD10123FB731CE0D8
:103F60007B689B6A022B02D9032B03D018E0012344
:103F7000FB7315E07B68DB6A03F08073002B0ED0C7
:103F80000123FB730BE000BF0AE000BF08E000BFA5
:103F900006E000BF04E000BF02E000BF00E000BF99
:103FA000FB7B18461437BD465DF8047B704700BFA5
:103FB00080B485B000AF78607B681B68BB607B68AD
:103FC0001B683A4A934222D07B681B68384A934266
:103FD0001DD07B681B68374A934218D07B681B68EA
:103FE000354A934213D07B681B68344A93420ED003
:103FF0007B681B68324A934209D07B681B68314A50
:10400000934204D07B681B682F4A934201D101235D
:1040100000E00023002B1CD07B681B68DBB2083B50
:104020002A4AA2FB03231B09FB60FB6803F1B05380
:1040300003F516439B001A467B681A667B68244A80
:104040005A66FB6803F01F0301229A407B689A6658
:1040500026E07B681B68DBB2103B1E4AA2FB0323F1
:104060001B09FB60BB681C4A934206D8BB681B4A0D
:10407000934202D9FB680833FB60FB6803F180536D
:1040800003F502439B001A467B681A667B68144A54
:104090005A66FB6803F01F0301229A407B689A6608
:1040A00000BF1437BD465DF8047B704708540258C2
:1040B0001C54025830540258445402585854025860
:1040C0006C5402588054025894540258CDCCCCCC35
:1040D00080580258ABAAAAAAB80402400F040240B2
:1040E0008008024080B485B000AF78607B685B6870
:1040F000DBB2FB60FB68002B4AD0FB68082B47D87B
:104100007B681B68254A934222D07B681B68244A3F
:1041100093421DD07B681B68224A934218D07B686B
:104120001B68214A934213D07B681B681F4A934245
:104130000ED07B681B681E4A934209D07B681B68BF
:104140001C4A934204D07B681B681B4A934201D1EE
:10415000012300E00023002B0AD0FA68174B134418
:104160009B001A467B68DA667B68154A1A6709E085
:10417000FA68144B13449B001A467B68DA667B6826
:10418000114A1A67FB68013B01229A407B685A6713
:1041900000BF1437BD465DF8047B704708540258D1
:1041A0001C5402583054025844540258585402586F
:1041B0006C54025880540258945402583F9600168A
:1041C000405902583F8200104009024080B58AB031
:1041D00000AFF860B9607A60BB683B627B68FB61E6
:1041E0000423FB75524B1B7D012B01D102239BE065
:1041F0004F4B01221A75BB68B3F1006F03D3BB6844
:10420000B3F1016F07D3BB684A4A934206D9BB6832
:10421000494A934202D80123BB610CE0BB68B3F169
:10422000016F06D3BB68B3F1026F02D20223BB61F8
:1042300001E0012378E03E4B00229A61B9694CF21B
:10424000503000F027F9034687F8273097F82730D9
:10425000002B64D1BB69012B10D1FB68022B06D166
:10426000364B9B69354A43F0200393610EE0334B94
:10427000DB68324A43F00203D36007E02F4BD3F8E8
:104280000C312E4A43F00203C2F80C31BFF36F8F9A
:1042900000BFBFF34F8F00BFFB68022B05D17A68C8
:1042A000BB68128892B21A800FE0FB691A683B6AF9
:1042B0001A603B6A04333B62FB690433FB61FB7D9C
:1042C000013BFB75FB7D002BEFD1BFF36F8F00BF70
:1042D000BFF34F8F00BFB9694CF2503000F0DAF8ED
:1042E000034687F82730FB68022B06D1134B9B69E6
:1042F000124A23F02003936111E0BB69012B06D120
:104300000E4BDB680D4A23F00203D36007E00B4B32
:10431000D3F80C31094A23F00203C2F80C31044BE4
:1043200000221A7597F8273018462837BD4680BDF9
:10433000000F0024FFEFFF08FFF3FF0800200052EA
:1043400080B400AF184BDB6803F00103002B0DD0E5
:10435000154B164A5A60144B154A5A60124BDB68CB
:1043600003F00103002B01D0012318E00E4BD3F81A
:104370000C3103F00103002B10D00B4B0B4AC3F898
:104380000421094B0A4AC3F80421074BD3F80C3126
:1043900003F00103002B01D0012300E000231846A5
:1043A000BD465DF8047B704700200052230167453D
:1043B000AB89EFCD80B400AF124BDB68114A43F0FC
:1043C0000103D3600F4BDB6803F00103002B01D125
:1043D000012311E00B4BD3F80C310A4A43F00103DF
:1043E000C2F80C31074BD3F80C3103F00103002B5A
:1043F00001D1012300E000231846BD465DF8047B8F
:10440000704700BF0020005280B400AF0C4B9B6986
:1044100003F00103002B0DD0094B0A4A9A60084BA8
:10442000094A9A60064B9B6903F00103002B01D0F7
:10443000012300E000231846BD465DF8047B704769
:10444000002000523B2A19087F6E5D4C80B400AFFB
:10445000094B9B69084A43F001039361064B9B6932
:1044600003F00103002B01D1012300E000231846D3
:10447000BD465DF8047B70470020005280B400AF59
:10448000034B9B691846BD465DF8047B704700BF2F
:10449000000F002480B586B000AF78603960042337
:1044A0007B6100233B61FCF7E7FDF8603B68022B72
:1044B00013D1414B7B6110E07B68B3F1FF3F0CD01F
:1044C000FCF7DAFD0246FB68D31A7A689A4202D3F7
:1044D0007B68002B01D103236AE07A69374B1340D4
:1044E0007A699A420AD1364B1A697B6913407A6914
:1044F0009A420CBF01230023DBB20CE0304BD3F80F
:104500001031DA437B69134023F00043002B0CBFCA
:1045100001230023DBB2002BCED13B68012B05D158
:10452000274B1A69274B13403B6107E0244BD3F814
:104530001021244B134043F000433B613B6923F0BF
:104540000043002B17D0204B9A693B6913431E4A46
:1045500093613A69194B13403A699A4203D1184A58
:104560003B69536105E0164A3B6923F00043C2F8FA
:10457000143101231CE03B68012B0BD1104B1B694C
:1045800003F48033B3F5803F11D10D4B4FF48032EB
:104590005A610CE00A4BD3F8103103F48033B3F5C1
:1045A000803F04D1064B4FF48032C3F8142100231E
:1045B00018461837BD4680BD040000800F00AF1FAD
:1045C000002000520000AE17000F002480B584B018
:1045D00000AF786039600023FB73604B1B7D012BBB
:1045E00001D10223B6E05D4B01221A755B4B00221C
:1045F0009A617B685B6803F00103002B09D00121FD
:104600004CF25030FFF746FF0346002B01D0012348
:10461000FB737B685B6803F00203002B09D0022167
:104620004CF25030FFF736FF0346002B01D0012338
:10463000FB73FB7B002B40F089807B681B68012BA0
:1046400036D17B681A697B685B681946104600F0B2
:10465000EFF87B685B6803F00103002B0FD00121AA
:104660004CF25030FFF716FF0346002B01D0012318
:10467000FB733B4BDB683A4A23F00803D3607B684B
:104680005B6803F00203002B60D002214CF2503033
:10469000FFF700FF0346002B01D00123FB73304BD3
:1046A000D3F80C312E4A23F00803C2F80C314DE048
:1046B0003B684FF0FF321A607B689B68BB603DE04F
:1046C0007B6859687B681B691A46B86800F0E2F895
:1046D0007B685B6803F00103002B0ED001214CF2D4
:1046E0005030FFF7D7FE0346FB731D4BDB681C4AB7
:1046F00023F4FE5323F00403D3607B685B6803F06C
:104700000203002B10D002214CF25030FFF7C2FE02
:104710000346FB73124BD3F80C31114A23F4FE53BA
:1047200023F00403C2F80C31FB7B002B03D03B6861
:10473000BA681A600AE0BB680133BB607B68DA685C
:104740007B689B681344BA689A42B9D3034B002232
:104750001A75FB7B18461037BD4680BD000F00243C
:104760000020005280B582B000AF78607B681622CE
:104770001A6000F0F5F802467B68DA6000F00CF988
:1047800002467B689A6100F05FF902467B681A6115
:104790007B68DB69012B03D07B68DB69022B29D1A5
:1047A0007B681B6843F029027B681A607B68181DD0
:1047B0007B6803F108017B68DB691A4600F0A4F806
:1047C0007B6803F120007B6803F124017B6803F11F
:1047D00028027B68DB6900F0F5F87B6803F138009C
:1047E0007B6803F13C017B6803F140027B68DB6975
:1047F00000F052F97B6803F130027B6834331946CC
:10480000104600F02FF97B681B6843F040027B687C
:104810001A607B681B6843F080027B681A6000F0B6
:104820007DF902467B685A6400BF0837BD4680BDEB
:1048300080B483B000AF786039603B6803F0030355
:10484000032B06D1124B9B69114A43F0100393616D
:1048500017E03B6803F00103002B05D00C4BDB682D
:104860000B4A43F02803D3603B6803F00203002B9C
:1048700007D0074BD3F80C31054A43F02803C2F8A0
:104880000C3100BF0C37BD465DF8047B704700BF9C
:104890000020005280B485B000AFF860B9607A6043
:1048A000BB6803F00103002B0ED0164BDB68154AE2
:1048B00023F4FE53D360134BDA68FB689B01134368
:1048C000104A43F02403D360BB6803F00203002BBB
:1048D00012D00C4BD3F80C310A4A23F4FE53C2F821
:1048E0000C31084BD3F80C21FB689B011343054A9C
:1048F00043F02403C2F80C3100BF1437BD465DF805
:10490000047B70470020005280B487B000AFF8608D
:10491000B9607A6000237B617B68012B02D10F4B69
:104920009B6B7B617B68022B03D10C4BD3F8383136
:104930007B617B69DA43BB681A60BB681B68002B2C
:1049400003D1FB6800221A6002E0FB6801221A60B2
:1049500000BF1C37BD465DF8047B70470020005245
:1049600080B483B000AF0B4BDB6903F47F437B6003
:104970007B68B3F52A4F06D07B68B3F54C4F02D065
:104980004FF4AA4300E07B6818460C37BD465DF83B
:10499000047B70470020005280B483B000AF084B06
:1049A000DB697B607B6823F47F4323F00C037B602F
:1049B0007B6818460C37BD465DF8047B704700BF26
:1049C0000020005280B487B000AFF860B9607A6010
:1049D0003B6000237B6100233B613B68012B05D1D9
:1049E000174B9B6A7B614FF000633B613B68022B76
:1049F00006D1134BD3F828317B614FF001633B6143
:104A00007B6903F00042FB681A607B691A020D4B58
:104A100013403A691A44BB681A607B691B0CC3F3E4
:104A20000B027B681A607B681B681A023B691A4498
:104A30007B681A6000BF1C37BD465DF8047B704779
:104A40000020005200FF0F0080B400AF044BDB6970
:104A500003F00C031846BD465DF8047B704700BFA9
:104A60000020005280B485B000AF78603960094BF7
:104A70001B6CFB60FB681A047B681A60FB681B0CEC
:104A80001B043A68136000BF1437BD465DF8047B11
:104A9000704700BF0020005280B487B000AFF860BC
:104AA000B9607A603B6000237B6100233B613B6817
:104AB000012B05D1174B1B6B7B614FF000633B61F2
:104AC0003B68022B06D1134BD3F830317B614FF09A
:104AD00001633B617B6903F00042FB681A607B69FC
:104AE0001A020D4B13403A691A44BB681A607B697D
:104AF0001B0CC3F30B027B681A607B681B681A02ED
:104B00003B691A447B681A6000BF1C37BD465DF8DC
:104B1000047B70470020005200FF0F0080B400AFFC
:104B2000034B9B6E1846BD465DF8047B704700BF83
:104B30000020005280B489B000AF78603960002353
:104B4000FB61894B7B6194E13B681A680121FB6939
:104B500001FA03F313403B613B69002B00F08681AF
:104B60003B685B6803F00303012B05D03B685B687F
:104B700003F00303022B30D17B689B68BB61FB69A8
:104B80005B00032202FA03F3DB43BA691340BB6103
:104B90003B68DA68FB695B0002FA03F3BA69134306
:104BA000BB617B68BA699A607B685B68BB61012204
:104BB000FB6902FA03F3DB43BA691340BB613B684C
:104BC0005B681B0903F00102FB6902FA03F3BA698F
:104BD0001343BB617B68BA695A603B685B6803F04A
:104BE0000303032B17D07B68DB68BB61FB695B00A9
:104BF000032202FA03F3DB43BA691340BB613B684B
:104C00009A68FB695B0002FA03F3BA691343BB615C
:104C10007B68BA69DA603B685B6803F00303022BC8
:104C200023D1FB69DA087B68083253F82230BB6174
:104C3000FB6903F007039B000F2202FA03F3DB4337
:104C4000BA691340BB613B681A69FB6903F007034B
:104C50009B0002FA03F3BA691343BB61FB69DA08EC
:104C60007B680832B96943F822107B681B68BB6116
:104C7000FB695B00032202FA03F3DB43BA691340CA
:104C8000BB613B685B6803F00302FB695B0002FAEF
:104C900003F3BA691343BB617B68BA691A603B6866
:104CA0005B6803F44033002B00F0E0802F4BD3F817
:104CB00054312E4A43F00203C2F854312B4BD3F83F
:104CC000543103F00203FB60FB68294AFB699B082F
:104CD000023352F82330BB61FB6903F003039B00EE
:104CE0000F2202FA03F3DB43BA691340BB617B680E
:104CF000204A934252D07B681F4A934231D07B684E
:104D00001E4A93422BD07B681D4A934225D07B6874
:104D10001C4A93421FD07B681B4A934219D07B6880
:104D20001A4A934213D07B68194A93420DD07B688C
:104D3000184A934207D07B68174A934201D109234E
:104D40002DE00A232BE0082329E0072327E0062390
:104D500025E0052323E0042321E003231FE00223B1
:104D60001DE001231BE000BF8000005800440258F2
:104D700000040058000002580004025800080258BD
:104D8000000C025800100258001402580018025873
:104D9000001C025800200258002402580023FA691F
:104DA00002F0030292009340BA691343BB61384991
:104DB000FB699B080233BA6941F823204FF0B043E6
:104DC0001B68BB613B69DB43BA691340BB613B684D
:104DD0005B6803F48013002B03D0BA693B6913436B
:104DE000BB614FF0B042BB6913604FF0B0435B68EA
:104DF000BB613B69DB43BA691340BB613B685B68DD
:104E000003F40013002B03D0BA693B691343BB6161
:104E10004FF0B042BB6953607B695B68BB613B6923
:104E2000DB43BA691340BB613B685B6803F4003342
:104E3000002B03D0BA693B691343BB617B69BA6934
:104E40005A607B691B68BB613B69DB43BA691340ED
:104E5000BB613B685B6803F48033002B03D0BA6905
:104E60003B691343BB617B69BA691A60FB69013313
:104E7000FB613B681A68FB6922FA03F3002B7FF49D
:104E800063AE00BF00BF2437BD465DF8047B7047AA
:104E90000004005880B487B000AF78603960002308
:104EA0007B61754B3B61D9E001227B6902FA03F318
:104EB0003A681340FB60FB68002B00F0CC806F4A1F
:104EC0007B699B08023352F82330BB607B6903F097
:104ED00003039B000F2202FA03F3BA681340BB607E
:104EE0007B68674A934237D07B68664A934231D0E9
:104EF0007B68654A93422BD07B68644A934225D0F5
:104F00007B68634A93421FD07B68624A934219D000
:104F10007B68614A934213D07B68604A93420DD00C
:104F20007B685F4A934207D07B685E4A934201D117
:104F3000092312E00A2310E008230EE007230CE007
:104F400006230AE0052308E0042306E0032304E027
:104F5000022302E0012300E000237A6902F0030249
:104F600092009340BA689A4236D13B691A68FB684E
:104F7000DB431A403B691A603B695A68FB68DB43B4
:104F80001A403B695A604FF0B0435A68FB68DB43F4
:104F90004FF0B04113404B604FF0B0431A68FB68CC
:104FA000DB434FF0B04113400B607B6903F0030318
:104FB0009B000F2202FA03F3BB60304A7B699B0817
:104FC000023352F82310BB68DA432C487B699B08F4
:104FD0000A40023340F823207B681A687B695B0033
:104FE000032101FA03F31A437B681A607B69DA082C
:104FF0007B68083253F822107B6903F007039B009B
:105000000F2202FA03F3DB437A69D20819407B6866
:10501000083243F822107B68DA687B695B00032161
:1050200001FA03F3DB431A407B68DA607B685A6855
:1050300001217B6901FA03F3DB431A407B685A6064
:105040007B689A687B695B00032101FA03F3DB4309
:105050001A407B689A607B6901337B613A687B699F
:1050600022FA03F3002B7FF41FAF00BF00BF1C37F1
:10507000BD465DF8047B704780000058000400586E
:10508000000002580004025800080258000C0258A0
:10509000001002580014025800180258001C025850
:1050A000002002580024025880B485B000AF786018
:1050B0000B467B807B681A697B881340002B02D0EB
:1050C0000123FB7301E00023FB73FB7B18461437BD
:1050D000BD465DF8047B704780B483B000AF786054
:1050E0000B467B8013467B707B78002B03D07A883D
:1050F0007B689A6103E07B881A047B689A6100BF31
:105100000C37BD465DF8047B704780B582B000AFB8
:105110000346FB804FF0B043D3F88820FB88134050
:10512000002B08D04FF0B042FB88C2F88830FB88D3
:10513000184617F0EAFB00BF0837BD4680BD80B4B3
:1051400083B000AF786039607B6893F84130DBB2A0
:10515000202B38D17B6893F84030012B01D10223FA
:1051600032E07B68012283F840207B68242283F8A8
:1051700041207B681B681A687B681B6822F001026B
:105180001A607B681B681A687B681B6822F480526F
:105190001A607B681B6819687B681B683A680A4359
:1051A0001A607B681B681A687B681B6842F0010202
:1051B0001A607B68202283F841207B68002283F8F4
:1051C0004020002300E0022318460C37BD465DF85E
:1051D000047B704780B485B000AF786039607B682D
:1051E00093F84130DBB2202B39D17B6893F8403003
:1051F000012B01D1022333E07B68012283F8402098
:105200007B68242283F841207B681B681A687B68CE
:105210001B6822F001021A607B681B681B68FB6038
:10522000FB6823F47063FB603B681B02FA6813435E
:10523000FB607B681B68FA681A607B681B681A68E9
:105240007B681B6842F001021A607B68202283F8A9
:1052500041207B68002283F84020002300E00223E5
:1052600018461437BD465DF8047B704780B582B0A0
:1052700000AF78607B68002B01D1012381E07B685F
:1052800093F84130DBB2002B06D17B68002283F813
:105290004020786815F0D8FF7B68242283F84120ED
:1052A0007B681B681A687B681B6822F001021A6021
:1052B0007B685A687B681B6822F070621A617B68A1
:1052C0001B689A687B681B6822F400429A607B68BE
:1052D000DB68012B07D17B689A687B681B6842F406
:1052E00000429A6006E07B689A687B681B6842F41B
:1052F00004429A607B68DB68022B04D17B681B68E0
:105300004FF400625A607B681B685B687A681268B9
:1053100043F0007343F4004353607B681B68DA6812
:105320007B681B6822F40042DA607B681A697B683C
:105330005B6942EA03017B689B691A027B681B6810
:105340000A43DA607B68D9697B681A6A7B681B68E4
:105350000A431A607B681B681A687B681B6842F006
:1053600001021A607B6800225A647B68202283F85D
:1053700041207B6800221A637B68002283F8422068
:10538000002318460837BD4680BD000080B588B0B0
:1053900002AFF8607A601A460B467B8113463B8168
:1053A000FB6893F84130DBB2202B40F0DA80FB68D9
:1053B00093F84030012B01D10223D3E0FB68012296
:1053C00083F84020FBF758FE78617B69009319232E
:1053D00001224FF40041F86800F0EDFA0346002B7B
:1053E00001D00123BEE0FB68212283F84120FB6845
:1053F000102283F84220FB6800225A64FB687A6816
:105400005A62FB683A895A85FB6800225A63FB6836
:105410005B8D9BB2FF2B0ED9FB68FF221A85FB68C0
:105420001B8DDAB27989514B00934FF08073F86885
:1054300000F0E4FC6CE0FB685B8D9AB2FB681A85B7
:10544000FB681B8DDAB27989484B00934FF00073EB
:10545000F86800F0D3FC5BE07A69396AF86800F01C
:10546000EAFA0346002B01D001237BE0FB685B6A6C
:105470001A78FB681B689A62FB685B6A5A1CFB68B7
:105480005A62FB685B8D9BB2013B9AB2FB685A85FE
:10549000FB681B8D013B9AB2FB681A85FB685B8D2C
:1054A0009BB2002B34D0FB681B8D002B30D17B6965
:1054B00000933B6A00228021F86800F07CFA0346E2
:1054C000002B01D001234DE0FB685B8D9BB2FF2BCD
:1054D0000ED9FB68FF221A85FB681B8DDAB2798929
:1054E000002300934FF08073F86800F087FC0FE012
:1054F000FB685B8D9AB2FB681A85FB681B8DDAB27C
:105500007989002300934FF00073F86800F076FC6F
:10551000FB685B8D9BB2002B9ED17A69396AF86873
:1055200000F0C9FA0346002B01D001231AE0FB6802
:105530001B682022DA61FB681B685968FB681A68DF
:105540000B4B0B405360FB68202283F84120FB6823
:10555000002283F84220FB68002283F840200023C9
:1055600000E0022318461837BD4680BD00200080A9
:1055700000E800FE80B588B002AFF8607A601A4695
:105580000B467B8113463B81FB6893F84130DBB2CD
:10559000202B40F0DB80FB6893F84030012B01D1D9
:1055A0000223D4E0FB68012283F84020FBF764FD6E
:1055B00078617B690093192301224FF40041F86858
:1055C00000F0F9F90346002B01D00123BFE0FB688E
:1055D000222283F84120FB68102283F84220FB68D6
:1055E00000225A64FB687A685A62FB683A895A85D5
:1055F000FB6800225A63FB685B8D9BB2FF2B0ED9C0
:10560000FB68FF221A85FB681B8DDAB27989524B41
:1056100000934FF08073F86800F0F0FB6DE0FB68DA
:105620005B8D9AB2FB681A85FB681B8DDAB27989AB
:10563000494B00934FF00073F86800F0DFFB5CE02B
:105640007A69396AF86800F073FA0346002B01D0D2
:1056500001237CE0FB681B685A6AFB685B6AD2B274
:105660001A70FB685B6A5A1CFB685A62FB681B8DE8
:10567000013B9AB2FB681A85FB685B8D9BB2013BCC
:105680009AB2FB685A85FB685B8D9BB2002B34D0C5
:10569000FB681B8D002B30D17B6900933B6A002295
:1056A0008021F86800F087F90346002B01D0012320
:1056B0004DE0FB685B8D9BB2FF2B0ED9FB68FF2290
:1056C0001A85FB681B8DDAB27989002300934FF0AD
:1056D0008073F86800F092FB0FE0FB685B8D9AB274
:1056E000FB681A85FB681B8DDAB279890023009369
:1056F0004FF00073F86800F081FBFB685B8D9BB294
:10570000002B9DD17A69396AF86800F0D4F9034614
:10571000002B01D001231AE0FB681B682022DA610C
:10572000FB681B685968FB681A680C4B0B40536098
:10573000FB68202283F84120FB68002283F8422086
:10574000FB68002283F84020002300E00223184673
:105750001837BD4680BD00BF0024008000E800FE71
:1057600080B58AB002AFF8607A603B600B467B81FF
:1057700000237B61FB6893F84130DBB2202B40F0C3
:10578000F180FB681B689B6903F40043B3F5004F8D
:1057900001D10223E7E0FB6893F84030012B01D1EF
:1057A0000223E0E0FB68012283F84020FB6824220A
:1057B00083F84120FB6800225A64FB68DB68012BF8
:1057C00007D17B89C3F3090343F0007343F400530B
:1057D00004E07B89C3F3090343F42053FA68126899
:1057E0005360FBF749FCB861FB681B689B6903F0D9
:1057F0002003202B0CBF01230023DBB2FB77FB68C7
:105800001B689B6903F01003102B0CBF01230023BE
:10581000DBB2BB7734E03B68B3F1FF3F1AD0FBF754
